:100000000C9446000C9474010C9485010C94960198
:100010000C94A7010C94B8010C9421010C94D60007
:100020000C9465000C9465000C9465000C946500BC
:100030000C94C9010C9465000C9465000C94650047
:100040000C9465000C9465000C9465000C9465009C
:100050000C9465000C9465000C9465000C9465008C
:100060000C9465000C9465000C9465000C9465007C
:100070000C9465000C9465000C9465000C9465006C
:100080000C9465000C9465000C94650011241FBE4F
:10009000CFEFD0E1DEBFCDBF11E0A0E0B1E0EEE0F8
:1000A000F9E000E00BBF02C007900D92A231B1074A
:1000B000D9F711E0A2E1B1E001C01D92AA31B10768
:1000C000E1F70E9406040C9485040C940000CF9381
:1000D000DF9381E00E94750261E081E00E94D90215
:1000E00061E082E00E94D90261E083E00E94D902CF
:1000F00061E084E00E94D90260E081E00E940C038C
:1001000060E082E00E940C0360E083E00E940C0348
:1001100060E084E00E940C0361E081E00E940C0337
:1001200061E082E00E940C0361E083E00E940C0326
:1001300061E084E00E940C0381E090E060E070E008
:100140000E942004EB0123E630E04CE181E00E94B4
:100150003C0323E630E04CE1BE0182E00E943C0318
:1001600023E630E04CE1BE0183E00E943C0323E63D
:1001700030E04CE1BE0184E00E943C030E94950205
:10018000813081F00E94710121E030E0813021F066
:10019000C901DF91CF91089520E030E0C901DF91DE
:1001A000CF91089582E00E94C003ECCF1F920F927E
:1001B0000FB60F9211248F9381E0809312018F91DB
:1001C0000F900FBE0F901F901895809112018823F9
:1001D00019F080E090E00895FFCF61E085E00E9493
:1001E000D9022FEF89E698E1215080409040E1F755
:1001F00000C0000060E084E00E94D90260E083E07B
:100200000E94D90260E082E00E94D90260E081E0B1
:100210000E94D90260E080E00E94D90280E00E9442
:10022000750261E085E00E940C0323E630E04CE1BA
:1002300062E776E085E00E943C0381E0809317014D
:1002400008951F920F920FB60F9211240BB60F92C2
:100250002F933F934F935F936F937F938F939F93CE
:10026000AF93BF93EF93FF9380911701811102C069
:100270000E94ED00FF91EF91BF91AF919F918F91FF
:100280007F916F915F914F913F912F910F900BBE96
:100290000F900FBE0F901F90189561E085E00E94AF
:1002A000D9022FEF89E698E1215080409040E1F794
:1002B00000C0000060E085E00E940C0323E630E00F
:1002C0004CE162E776E085E00E943C031092170162
:1002D00008950E94ED00FFCF8091130190911401C9
:1002E00008958091150108951F920F920FB60F92F5
:1002F00011248F93809115018160809315018F9156
:100300000F900FBE0F901F9018951F920F920FB66F
:100310000F9211248F9380911501826080931501B3
:100320008F910F900FBE0F901F9018951F920F92F4
:100330000FB60F9211248F938091150184608093E2
:1003400015018F910F900FBE0F901F9018951F925F
:100350000F920FB60F9211248F9380911501886030
:10036000809315018F910F900FBE0F901F901895DD
:100370001F920F920FB60F9211248F938091150147
:100380008061809315018F910F900FBE0F901F9089
:1003900018951F920F920FB60F9211248F9388B366
:1003A000809588BB8F910F900FBE0F901F9018956E
:1003B000E1E6F0E080818C6F80838AB38F638ABB33
:1003C00084B38F6384BB81B3806F81BBBD9AEAE63F
:1003D000F0E080818FEF80838AB78F638ABF8EB50C
:1003E0008B608EBD8BEA91E69BBD8ABD80B788602D
:1003F00080BF83B7856083BF3E9A379A0895F8948B
:10040000613089F0882359F0813019F487B78F7EE5
:1004100087BF10921401109213017894089587B742
:100420008E7F87BFF6CF882331F08130B1F787B751
:10043000806187BFF2CF87B7816087BF78940895C6
:10044000CF93DF9300D0CDB7DEB7F89496E09983D1
:1004500095E09A8329B7FE01E80FF11D81E090E055
:10046000018002C0880F991F0A94E2F7613041F0C1
:10047000282329BF78940F900F90DF91CF91089592
:10048000282B29BF78940F900F90DF91CF9108957A
:10049000B69BFECF9AE19A95F1F700C092B3282F50
:1004A000217030E022953295307F3227207F32272D
:1004B00082708295880F807E822B892B82BB662377
:1004C00051F080E0EFE9FFE03197F1F700C0000064
:1004D0008F5F8613F7CFB69BFECFFAE1FA95F1F75F
:1004E00000C082B38F7082BB089590911601813055
:1004F00029F0811102C0913019F00895911114C0B2
:10050000C59A2FEF81EE94E0215080409040E1F7B2
:1005100000C00000C5988091160190E0019681709E
:100520009927809316010895089586B38295817066
:100530000895811107C03898369A3699FECF84B154
:1005400095B10895389AF8CFCF93DF9300D000D0BB
:1005500000D0CDB7DEB7FE01319696E0DF011D92E7
:100560009A95E9F791E09A8392E09B8393E09C83CC
:1005700094E09D83F89429B7E80FF11D81E090E0A5
:10058000008002C0880F991F0A94E2F7613071F071
:10059000282329BF10921501789426960FB6F89457
:1005A000DEBF0FBECDBFDF91CF910895282B29BFAD
:1005B000F1CFCF93DF9300D000D000D0CDB7DEB71E
:1005C00096E0E0E0F1E0DE01119601900D929A953F
:1005D000E1F720916200E1E0F0E0EC0FFD1FE80F91
:1005E000F11D81E090E0008002C0880F991F0A94FD
:1005F000E2F7613069F0809582238093620026964D
:100600000FB6F894DEBF0FBECDBFDF91CF91089536
:10061000282B20936200F3CFCF93DF9300D000D03C
:1006200000D0CDB7DEB796E0E6E0F1E0DE0111964E
:1006300001900D929A95E1F72BB3E1E0F0E0EC0F19
:10064000FD1FE80FF11D81E090E0008002C0880FDF
:10065000991F0A94E2F7613061F0809582238BBB89
:1006600026960FB6F894DEBF0FBECDBFDF91CF91B7
:100670000895282B2BBBF4CFCF92DF92FF920F93DC
:100680001F93CF93DF9300D000D000D0CDB7DEB75B
:1006900096E0ECE0F1E0DE01119601900D929A9562
:1006A000E1F75DE95203F001539FF00D1124E05F83
:1006B000F84D469F6001479FD00C1124C114D1040E
:1006C00009F442C090911501082F10E091112BC040
:1006D00040E050E081E090E08C0F9D1F800F911F63
:1006E00061E070E0F5B29B01DC010C9002C0220FCA
:1006F000331F0A94E2F7F226F5BA309759F020E05A
:1007000030E0B5E0BA95F1F700002F5F3F4F2E17AC
:100710003F07B8F34F5F5F4F4C155D05A9F020917F
:1007200015012223F9F225B3E1E0F0E0EC0FFD1F03
:10073000E00FF11F81E090E0008002C0880F991F58
:100740000A94E2F7282325BB26960FB6F894DEBF5D
:100750000FBECDBFDF91CF911F910F91FF90DF9022
:10076000CF90089580E090E00E9448048230910587
:1007700010F482E090E0909319018093180108959D
:100780006AE00C944802CF93DF93EC01FC010190E6
:100790000020E9F7AF0141505109481B590B68E1AE
:1007A00071E00E944E04FE0101900020E9F7BF01B4
:1007B000615071096C1B7D0B80911801909119019A
:1007C000680F791F709319016093180180E090E021
:1007D000DF91CF910C946F0481E00E94750261E07B
:1007E00084E00E94D90260E084E00E940C032FE5BF
:1007F00030E04CE160E476E084E00E943C0384E079
:100800000E94C00380E090E00895FFCF0E94D801CD
:1008100061E080E00E94200261E081E00E9420020D
:1008200004C00E9405040E9469010E94E5000E9424
:10083000EC030E9467008823A1F30E94ED00F1CF32
:1008400097FB072E16F4009407D077FD09D00E947D
:10085000340407FC05D03EF4909581959F4F089590
:10086000709561957F4F0895AA1BBB1B51E107C08E
:10087000AA1FBB1FA617B70710F0A61BB70B881F30
:10088000991F5A95A9F780959095BC01CD010895BF
:10089000A8E1B0E042E050E00C947704DC01A40F42
:1008A000B51F4150504048F0CB01840F951F2E9149
:1008B0000E945F0441505040D0F70895262FE199DF
:1008C000FECF9FBB8EBBE09A01970DB2021631F0AE
:1008D0002DBB0FB6F894E29AE19A0FBE08950196E7
:1008E000272F0E945F040C945E04DC01CB01FC0105
:1008F000E199FECF06C0FFBBEEBBE09A31960DB288
:0E0900000D9241505040B8F70895F894FFCF83
:10090E0002030405060705040302010000010203A9
:02091E000405CE
:00000001FF
