:100000000C9446000C946A010C947B010C948C01B6
:100010000C949D010C94AE010C9413010C94C1003E
:100020000C9465000C9465000C9465000C946500BC
:100030000C94BF010C9465000C9465000C94650051
:100040000C9465000C9465000C9465000C9465009C
:100050000C9465000C9465000C9465000C9465008C
:100060000C9465000C9465000C9465000C9465007C
:100070000C9465000C9465000C9465000C9465006C
:100080000C9465000C9465000C94650011241FBE4F
:10009000CFEFD0E1DEBFCDBF11E0A0E0B1E0EAE3F9
:1000A000F9E000E00BBF02C007900D92A03EB1073F
:1000B000D9F711E0A0EEB1E001C01D92A83EB10752
:1000C000E1F70E943E040C949B040C94000081E232
:1000D00091E00E94B70361E083E00E94CE0261E0FC
:1000E00082E00E94CE0261E081E00E94CE0261E0E7
:1000F00080E00E94CE022FEF89E698E121508040F7
:100100009040E1F700C000002FEF81EE94E0215015
:1001100080409040E1F700C000002FEF81EE94E0B6
:10012000215080409040E1F700C000002FEF89E6A9
:1001300098E1215080409040E1F700C000002FEF8F
:1001400081EE94E0215080409040E1F700C0000033
:100150002FEF81EE94E0215080409040E1F700C005
:1001600000002FEF8DE399E4215080409040E1F7AB
:1001700000C0000087E391E00E94B70380E090E0B8
:1001800008951F920F920FB60F9211248F9381E062
:100190008093E0018F910F900FBE0F901F901895E4
:1001A0008DE491E00E94B70380E090E0089561E063
:1001B00085E00E94CE022FEF89E698E12150804031
:1001C0009040E1F700C0000060E083E00E94CE02B2
:1001D00060E082E00E94CE0260E081E00E94CE02F8
:1001E00060E080E00E94CE0280E00E946A0261E04E
:1001F00085E00E94010323E630E04CE162E776E00F
:1002000085E00E94310360E084E00E94CE0260E05D
:1002100085E00E94CE0281E691E00E94B70381E072
:100220008093E50108951F920F920FB60F9211244B
:100230000BB60F922F933F934F935F936F937F93E0
:100240008F939F93AF93BF93EF93FF938091E501BB
:10025000811102C00E94D700FF91EF91BF91AF9131
:100260009F918F917F916F915F914F913F912F91CE
:100270000F900BBE0F900FBE0F901F90189561E06E
:1002800085E00E94CE022FEF89E698E12150804060
:100290009040E1F700C0000060E085E00E940103AB
:1002A00023E630E04CE162E776E085E00E9431032E
:1002B0001092E50108958FE791E00E94B7030E9434
:1002C000D700FFCF8091E1019091E20108958091E4
:1002D000E30108951F920F920FB60F9211248F938E
:1002E0008091E30181608093E3018F910F900FBEB5
:1002F0000F901F9018951F920F920FB60F92112416
:100300008F938091E30182608093E3018F910F903E
:100310000FBE0F901F9018951F920F920FB60F925D
:1003200011248F938091E30184608093E3018F9186
:100330000F900FBE0F901F9018951F920F920FB63F
:100340000F9211248F938091E30188608093E301E1
:100350008F910F900FBE0F901F9018951F920F92C4
:100360000FB60F9211248F938091E30180618093E7
:10037000E3018F910F900FBE0F901F9018951F9261
:100380000F920FB60F9211248F939F938091E101EA
:100390009091E20101969093E2018093E1019F9197
:1003A0008F910F900FBE0F901F901895E1E6F0E02F
:1003B00080818C6F80838AB38F638ABB84B38F63A1
:1003C00084BB81B3806F81BBBD9AEAE6F0E0808197
:1003D0008FEF80838AB78F638ABF8EB58B608EBDA7
:1003E0008BEA91E69BBD8ABD80B7886080BF83B7EA
:1003F000856083BF3E9A379A0895F894613089F0FA
:10040000882359F0813019F487B78F7E87BF109207
:10041000E2011092E1017894089587B78E7F87BF3B
:10042000F6CF882331F08130B1F787B7806187BF7D
:10043000F2CF87B7816087BF78940895CF93DF9319
:1004400000D0CDB7DEB7F89496E0998395E09A8313
:1004500029B7FE01E80FF11D81E090E0018002C0A4
:10046000880F991F0A94E2F7613041F0282329BFD1
:1004700078940F900F90DF91CF910895282B29BF8A
:1004800078940F900F90DF91CF91089520E1829F93
:10049000C0011124B69BFECFE5E2EA95F1F700001A
:1004A00022B3282B22BB662351F020E0EFE9FFE0C6
:1004B0003197F1F700C000002F5F2613F7CFB69BEE
:1004C000FECFF5E2FA95F1F7000092B3809589230B
:1004D00082BB08959091E401813029F0811102C01E
:1004E000913019F00895911114C0C59A2FEF81EE43
:1004F00094E0215080409040E1F700C00000C59892
:100500008091E40190E00196817099278093E40145
:100510000895089586B3829581700895811107C06A
:100520003898369A3699FECF84B195B10895389AA5
:10053000F8CFCF93DF9300D000D000D0CDB7DEB797
:10054000FE01319696E0DF011D929A95E9F791E060
:100550009A8392E09B8393E09C8394E09D83F8943C
:1005600029B7E80FF11D81E090E0008002C0880FFC
:10057000991F0A94E2F7613071F0282329BF109285
:10058000E301789426960FB6F894DEBF0FBECDBF78
:10059000DF91CF910895282B29BFF1CFCF93DF931F
:1005A00000D000D000D0CDB7DEB796E0E0E0F1E0BB
:1005B000DE01119601900D929A95E1F7209162006B
:1005C000E1E0F0E0EC0FFD1FE80FF11D81E090E0AD
:1005D000008002C0880F991F0A94E2F7613069F029
:1005E000809582238093620026960FB6F894DEBF32
:1005F0000FBECDBFDF91CF910895282B20936200CD
:10060000F3CFCF93DF9300D000D000D0CDB7DEB7CB
:1006100096E0E6E0F1E0DE01119601900D929A95E8
:10062000E1F72BB3E1E0F0E0EC0FFD1FE80FF11D67
:1006300081E090E0008002C0880F991F0A94E2F7E1
:10064000613061F0809582238BBB26960FB6F894BB
:10065000DEBF0FBECDBFDF91CF910895282B2BBBFE
:10066000F4CFCF92DF92FF920F931F93CF93DF933C
:1006700000D000D000D0CDB7DEB796E0ECE0F1E0DE
:10068000DE01119601900D929A95E1F75DE9520312
:10069000F001539FF00D1124E05FF84D469F60017B
:1006A000479FD00C1124C114D10409F442C0909189
:1006B000E301082F10E091112BC040E050E081E0F1
:1006C00090E08C0F9D1F800F911F61E070E0F5B2EC
:1006D0009B01DC010C9002C0220F331F0A94E2F749
:1006E000F226F5BA309759F020E030E0B5E0BA953F
:1006F000F1F700002F5F3F4F2E173F07B8F34F5F12
:100700005F4F4C155D05A9F02091E3012223F9F21A
:1007100025B3E1E0F0E0EC0FFD1FE00FF11F81E0F9
:1007200090E0008002C0880F991F0A94E2F7282306
:1007300025BB26960FB6F894DEBF0FBECDBFDF9166
:10074000CF911F910F91FF90DF90CF90089580E09F
:1007500090E00E945E048F3F2FEF920711F482E039
:1007600090E09093E7018093E60108950895CF9378
:10077000DF93EC01FC0101900020E9F7AF01481B79
:10078000590B6091E6017091E7010E946404FE013B
:1007900001900020E9F7BF018091E6019091E70107
:1007A0006C1B7D0B680F791F7093E7016093E60166
:1007B00080E090E0DF91CF910C94850481E00E946D
:1007C0006A0261E084E00E94CE028EE991E00E941C
:1007D000B7030E943F018DEA91E00E94B70361E0F8
:1007E00084E00E94CE0260E084E00E94010326E4DF
:1007F00030E041E060E273E084E00E9431032FEFDB
:1008000089E698E1215080409040E1F700C0000067
:1008100061E084E00E94010326E430E041E060E40E
:1008200076E084E00E9431032FEF89E698E12150C1
:1008300080409040E1F700C0000060E084E00E944A
:10084000010326E430E041E060E273E084E00E94CE
:1008500031032FEF89E698E1215080409040E1F785
:1008600000C000008BEB91E00E94B70380E090E0B5
:10087000089586ED91E00E94B703FFCF0E94D60154
:1008800061E080E00E941E0261E081E00E941E02A1
:1008900082E191E00E94B70306C00E945B010E94C2
:1008A00039040E945B010E94D0000E94DE030E9476
:1008B00067008111F2CF0E94D700F1CFA8E1B0E02C
:1008C00042E050E00C948D04DC01A40FB51F4150B0
:1008D000504048F0CB01840F951F2E910E94750463
:1008E00041505040D0F70895262FE199FECF9FBB8D
:1008F0008EBBE09A01970DB2021631F02DBB0FB6F8
:10090000F894E29AE19A0FBE08950196272F0E946B
:1009100075040C947404DC01CB01FC01E199FECF59
:1009200006C0FFBBEEBBE09A31960DB20D9241506E
:0A0930005040B8F70895F894FFCF87
:10093A00020304050607050403020100000102037D
:10094A00040550726F6772616D2073746172742E40
:10095A0000456E746572656420736369656E6365CC
:10096A00206D6F64652E0045786974696E6720731F
:10097A006369656E6365206D6F64652E0069646CDA
:10098A006520706861736520636F6D706C6574654E
:10099A00006465636B20706C617465206861732004
:1009AA006265656E2072657472616374656400695C
:1009BA006E20736166657479202D20617474656D8B
:1009CA007074696E67207265747261637400436142
:1009DA006D65726120656E61626C65640041726D5D
:1009EA0020657874656E6465642E006F6273657243
:1009FA00766174696F6E20706861736520636F6DCC
:100A0A00706C65746500706F776572206F6666003A
:00000001FF
