:100000000C9446000C942A020C943B020C944C0273
:100010000C945D020C946E020C94D3010C94850137
:100020000C9465000C9465000C9465000C946500BC
:100030000C947F020C9465000C9465000C94650090
:100040000C9465000C9465000C9465000C9465009C
:100050000C9465000C9465000C9465000C9465008C
:100060000C9465000C9465000C9465000C9465007C
:100070000C9465000C9465000C9465000C9465006C
:100080000C9465000C9465000C94650011241FBE4F
:10009000CFEFD0E1DEBFCDBF11E0A0E0B1E0E4EDF5
:1000A000FAE000E00BBF02C007900D92A63AB1073C
:1000B000D9F711E0A6EAB1E001C01D92AE3AB1074E
:1000C000E1F70E94FF040C9468050C94000061E0C5
:1000D00083E00E948E0361E082E00E948E0361E073
:1000E00081E00E948E0361E080E00E948E0360E068
:1000F00081E00E94C1032FE530E041E065E172E05C
:1001000081E00E94F10360E080E00E94C1032FE5DE
:1001100030E041E060E273E080E00E94F1032FEF05
:1001200089E698E1215080409040E1F700C000004E
:1001300060E082E00E94C1032FE530E041E060E929
:1001400071E080E00E94F1032FEF81EE94E02150F6
:1001500080409040E1F700C0000061E082E00E9432
:10016000C1032FE530E041E060E273E080E00E94EF
:10017000F1032FEF81EE94E0215080409040E1F7B1
:1001800000C0000060E082E00E94C1032FE530E083
:1001900041E060E971E080E00E94F1032FEF89E621
:1001A00098E1215080409040E1F700C0000060E0FD
:1001B00083E00E94C1032AE530E041E068EC70E092
:1001C00080E00E94F1032FEF81EE94E02150804007
:1001D0009040E1F700C0000061E083E00E94C103AD
:1001E0002AE530E041E060E971E080E00E94F1033F
:1001F0002FEF81EE94E0215080409040E1F700C065
:10020000000060E083E00E94C1032AE530E041E0A5
:1002100068EC70E080E00E94F1032FEF8DE399E439
:10022000215080409040E1F700C0000061E080E094
:100230000E94C1032FE530E041E065E870E080E016
:100240000E94F1032FEF81EE94E021508040904016
:10025000E1F700C0000060E080E00E94C1032FE5EC
:1002600030E041E065E870E080E00E94F1032FEFAC
:1002700081EE94E0215080409040E1F700C0000002
:1002800061E080E00E94C1032FE530E041E065E8D5
:1002900070E080E00E94F1032FEF81EE94E02150A6
:1002A00080409040E1F700C0000060E080E00E94E4
:1002B000C1032FE530E041E065E870E080E00E9496
:1002C000F1032FEF89E698E1215080409040E1F75B
:1002D00000C0000061E080E00E94C1032FE530E033
:1002E00041E060E273E080E00E94F10361E081E0C0
:1002F0000E94C1032FE530E041E065E172E081E05A
:100300000E94F10380E090E008951F920F920FB6D3
:100310000F9211248F9381E08093A6018F910F900B
:100320000FBE0F901F90189582E191E00E94790412
:1003300080E090E0089561E085E00E948E032FEF59
:1003400089E698E1215080409040E1F700C000002C
:1003500060E084E00E948E0360E083E00E948E03F0
:1003600060E082E00E948E0360E081E00E948E03E4
:1003700060E080E00E948E0380E00E942A0361E03A
:1003800085E00E94C10323E630E04CE162E776E0BD
:1003900085E00E94F10386E291E00E94790481E009
:1003A0008093AB0108951F920F920FB60F92112404
:1003B0000BB60F922F933F934F935F936F937F935F
:1003C0008F939F93AF93BF93EF93FF938091AB0174
:1003D000811102C00E949B01FF91EF91BF91AF91EB
:1003E0009F918F917F916F915F914F913F912F914D
:1003F0000F900BBE0F900FBE0F901F90189561E0ED
:1004000085E00E948E032FEF89E698E1215080401D
:100410009040E1F700C0000060E085E00E94C10369
:1004200023E630E04CE162E776E085E00E94F103EC
:100430001092AB01089584E491E00E9479040E9437
:100440009B01FFCF8091A7019091A8010895809111
:10045000A90108951F920F920FB60F9211248F9346
:100460008091A90181608093A9018F910F900FBEA7
:100470000F901F9018951F920F920FB60F92112494
:100480008F938091A90182608093A9018F910F9031
:100490000FBE0F901F9018951F920F920FB60F92DC
:1004A00011248F938091A90184608093A9018F9179
:1004B0000F900FBE0F901F9018951F920F920FB6BE
:1004C0000F9211248F938091A90188608093A901D4
:1004D0008F910F900FBE0F901F9018951F920F9243
:1004E0000FB60F9211248F938091A90180618093A0
:1004F000A9018F910F900FBE0F901F9018951F921A
:100500000F920FB60F9211248F939F938091A701A2
:100510009091A80101969093A8018093A7019F91C3
:100520008F910F900FBE0F901F901895E1E6F0E0AD
:1005300080818C6F80838AB38F638ABB84B38F631F
:1005400084BB81B3806F81BBBD9AEAE6F0E0808115
:100550008FEF80838AB78F638ABF8EB58B608EBD25
:100560008BEA91E69BBD8ABD80B7886080BF83B768
:10057000856083BF3E9A379A0895F894613089F078
:10058000882359F0813019F487B78F7E87BF109286
:10059000A8011092A7017894089587B78E7F87BF2E
:1005A000F6CF882331F08130B1F787B7806187BFFC
:1005B000F2CF87B7816087BF78940895CF93DF9398
:1005C00000D0CDB7DEB7F89496E0998395E09A8392
:1005D00029B7FE01E80FF11D81E090E0018002C023
:1005E000880F991F0A94E2F7613041F0282329BF50
:1005F00078940F900F90DF91CF910895282B29BF09
:1006000078940F900F90DF91CF91089520E1829F11
:10061000C0011124B69BFECFE5E2EA95F1F7000098
:1006200022B3282B22BB662351F020E0EFE9FFE044
:100630003197F1F700C000002F5F2613F7CFB69B6C
:10064000FECFF5E2FA95F1F7000092B38095892389
:1006500082BB08959091AA01813029F0811102C0D6
:10066000913019F00895911114C0C59A2FEF81EEC1
:1006700094E0215080409040E1F700C00000C59810
:100680008091AA0190E00196817099278093AA0138
:100690000895089586B3829581700895811107C0E9
:1006A0003898369A3699FECF84B195B10895389A24
:1006B000F8CFCF93DF9300D000D000D0CDB7DEB716
:1006C000FE01319696E0DF011D929A95E9F791E0DF
:1006D0009A8392E09B8393E09C8394E09D83F894BB
:1006E00029B7E80FF11D81E090E0008002C0880F7B
:1006F000991F0A94E2F7613071F0282329BF109204
:10070000A901789426960FB6F894DEBF0FBECDBF30
:10071000DF91CF910895282B29BFF1CFCF93DF939D
:1007200000D000D000D0CDB7DEB796E0E0E0F1E039
:10073000DE01119601900D929A95E1F720916200E9
:10074000E1E0F0E0EC0FFD1FE80FF11D81E090E02B
:10075000008002C0880F991F0A94E2F7613069F0A7
:10076000809582238093620026960FB6F894DEBFB0
:100770000FBECDBFDF91CF910895282B209362004B
:10078000F3CFCF93DF9300D000D000D0CDB7DEB74A
:1007900096E0E6E0F1E0DE01119601900D929A9567
:1007A000E1F72BB3E1E0F0E0EC0FFD1FE80FF11DE6
:1007B00081E090E0008002C0880F991F0A94E2F760
:1007C000613061F0809582238BBB26960FB6F8943A
:1007D000DEBF0FBECDBFDF91CF910895282B2BBB7D
:1007E000F4CFCF92DF92FF920F931F93CF93DF93BB
:1007F00000D000D000D0CDB7DEB796E0ECE0F1E05D
:10080000DE01119601900D929A95E1F75DE9520390
:10081000F001539FF00D1124E05FF84D469F6001F9
:10082000479FD00C1124C114D10409F442C0909107
:10083000A901082F10E091112BC040E050E081E0A9
:1008400090E08C0F9D1F800F911F61E070E0F5B26A
:100850009B01DC010C9002C0220F331F0A94E2F7C7
:10086000F226F5BA309759F020E030E0B5E0BA95BD
:10087000F1F700002F5F3F4F2E173F07B8F34F5F90
:100880005F4F4C155D05A9F02091A9012223F9F2D3
:1008900025B3E1E0F0E0EC0FFD1FE00FF11F81E078
:1008A00090E0008002C0880F991F0A94E2F7282385
:1008B00025BB26960FB6F894DEBF0FBECDBFDF91E5
:1008C000CF911F910F91FF90DF90CF90089580E01E
:1008D00090E00E942B058F3F2FEF920711F482E0EA
:1008E00090E09093AD018093AC0108956AE00C9480
:1008F0000603CF93DF93EC01FC0101900020E9F7A0
:10090000AF01481B590B6091AC017091AD010E9481
:100910003105FE0101900020E9F7BF018091AC0193
:100920009091AD016C1B7D0B680F791F7093AD0129
:100930006093AC0180E090E0DF91CF910C94520580
:1009400081E00E942A0383E691E00E9479040E94DC
:10095000FF0182E791E00E94790461E084E00E9457
:100960008E0360E084E00E94C10325E530E041E0B1
:1009700060E273E084E00E94F1032FEF89E698E1E2
:10098000215080409040E1F700C0000061E084E029
:100990000E94C10325E530E041E060E476E084E0B8
:1009A0000E94F1032FEF89E698E1215080409040AA
:1009B000E1F700C0000060E084E00E94C10325E58B
:1009C00030E041E060E273E084E00E94F1032FEF49
:1009D00089E698E1215080409040E1F700C0000096
:1009E00084E00E94760480E891E00E94790480E02F
:1009F00090E008958BE991E00E947904FFCF0E9476
:100A0000960261E080E00E948E0360E080E00E9438
:100A1000C10320E530E041E060E476E080E00E9440
:100A2000F1032FEF83ED90E3215080409040E1F7F8
:100A300000C0000061E080E00E94C10320E530E0DA
:100A400041E060E476E080E00E94F10360E080E055
:100A50000E948E03FFCFA8E1B0E042E050E00C948A
:100A60005A05DC01A40FB51F4150504048F0CB019E
:100A7000840F951F2E910E94420541505040D0F79F
:100A80000895262FE199FECF9FBB8EBBE09A019778
:100A90000DB2021631F02DBB0FB6F894E29AE19A2E
:100AA0000FBE08950196272F0E9442050C94410520
:100AB000DC01CB01FC01E199FECF06C0FFBBEEBB20
:100AC000E09A31960DB20D9241505040B8F708951A
:040AD000F894FFCFC8
:100AD40002030405060705040302010000010203E2
:100AE400040569646C6520706861736520636F6DCB
:100AF400706C657465006465636B20706C6174650B
:100B040020686173206265656E207265747261632A
:100B140074656400696E20736166657479202D20A4
:100B2400617474656D7074696E6720726574726146
:100B340063740043616D65726120656E61626C650A
:100B4400640041726D20657874656E6465642E007E
:100B54006F62736572766174696F6E207068617319
:100B64006520636F6D706C65746500706F77657276
:060B7400206F6666000020
:00000001FF
