:100000000C9446000C9463000C9463000C94630001
:100010000C9463000C9463000C9463000C946300D4
:100020000C9463000C9463000C9463000C946300C4
:100030000C9463000C9463000C9463000C946300B4
:100040000C9463000C9463000C9463000C946300A4
:100050000C9463000C9463000C9463000C94630094
:100060000C9463000C9463000C9463000C94630084
:100070000C9463000C9463000C9463000C94630074
:100080000C9463000C9463000C94630011241FBE55
:10009000CFEFD0E1DEBFCDBF11E0A0E0B1E0ECECEE
:1000A000F2E502C005900D92AC31B107D9F711E02D
:1000B000ACE1B1E001C01D92A332B107E1F70E94AB
:1000C00011290C9464290C940000E1E6F0E0808191
:1000D0008C6F80838AB38F638ABB84B38F6384BB46
:1000E0000895CF93DF9300D000D000D0CDB7DEB716
:1000F000DE011196E0E0F1E096E001900D92915062
:10010000E1F720916200E1E0F0E0EC0FFD1FE80F65
:10011000F11D81E090E0008002C0880F991F0A94D1
:10012000E2F7613061F0282B2093620026960FB62B
:10013000F894DEBF0FBECDBFDF91CF9108958095BB
:10014000822380936200F2CFCF93DF9300D000D060
:1001500000D0CDB7DEB7DE011196E6E0F1E096E023
:1001600001900D929150E1F72BB3E1E0F0E0EC0F3C
:10017000FD1FE80FF11D81E090E0008002C0880FB4
:10018000991F0A94E2F7613061F0809582238BBB5E
:1001900026960FB6F894DEBF0FBECDBFDF91CF918C
:1001A0000895282B2BBBF4CFEF92FF921F93CF9390
:1001B000DF9300D000D000D0CDB7DEB7182FDB0121
:1001C000BE016F5F7F4F86E091E026E0FC01019069
:1001D000CF01FB010192BF012150C1F78DE99FEFD3
:1001E000489F9001499F300D589F300D1124205F8A
:1001F000384D62E0E62EF12CE1E0F0E0EC0FFD1F5F
:10020000E10FF11D61E070E01097F1F040E050E087
:1002100015B3CB01008002C0880F991F0A94E2F742
:10022000182715BB2115310551F080E090E015E04D
:100230001A95F1F70000019682179307C0F34F5FFC
:100240005F4F4A175B0721F70894E108F108E114B2
:10025000F104D1F626960FB6F894DEBF0FBECDBFDF
:10026000DF91CF911F91FF90EF90089591B3906F20
:1002700091BB42B390E09C01217030702295329581
:10028000307F3227207F322782709070880F991F2D
:1002900082959295907F9827807F9827822B842B38
:1002A00082BB662351F080E0EFE9FFE03197F1F780
:1002B00000C000008F5F8617B9F782B38F7082BBD2
:1002C0000895CF93DF93EC01A881B981109711F1C4
:1002D0002C91213270F02A33E9F0AD014F5F5F4F6E
:1002E000CA0103C03A3359F0CF01FC0131913132D8
:1002F000C8F720E030E0C901DF91CF91089533279E
:1003000027FD3095205330402A30310518F48417EA
:10031000950731F02FEF3FEFC901DF91CF9108959D
:1003200021153105B9F71296B983A883E4CF0F934D
:100330001F93CF93DF9300D0CDB7DEB78C0100972A
:1003400049F0DC01ED91FC911197309719F0808113
:10035000882361F4FB011182108289E090E00F9004
:100360000F90DF91CF911F910F9108958581968114
:1003700012962D913C9113978217930759F781811B
:1003800069837A830E94862269817A8180FDE2CF27
:10039000D8018D919C911197FB019183808380E01E
:1003A00090E0DDCFFC01DB014115510529F08D9175
:1003B000819341505040D9F70895CF93DF93DC01EA
:1003C000EB0120E030E080E090E05EE20CC089309C
:1003D0009105C1F0FE01E20FF31F41872F5F3F4FF0
:1003E0008B309105B1F0ED91FC911197E80FF91F59
:1003F000408101964032A1F3453049F745EE8930FE
:10040000910541F7FE01E20FF31F51872F5F3F4F28
:10041000E1CF2C0F3D1FF9011186ED91FC91119751
:1004200083858887ED91FC91878D90E0A0E0B0E016
:10043000BA2FA92F982F8827468D50E060E070E0F2
:10044000842B952BA62BB72BBA2FA92F982F882753
:10045000458D50E060E070E0842B952BA62BB72BE8
:10046000BA2FA92F982F8827448D50E060E070E0C4
:10047000842B952BA62BB72B88839983AA83BB83C8
:10048000818D90E0A0E0B0E0BA2FA92F982F8827A7
:10049000408D50E060E070E0842B952BA62BB72BAD
:1004A000BA2FA92F982F8827478950E060E070E085
:1004B000842B952BA62BB72BBA2FA92F982F8827E3
:1004C000468950E060E070E0842B952BA62BB72B7B
:1004D0009F838E83BD83AC83DF91CF9108958F92EC
:1004E0009F92AF92BF92CF92DF92EF92FF920F93C3
:1004F0001F93CF93DF93EC018B81882379F480E005
:1005000090E0DF91CF911F910F91FF90EF90DF90DE
:10051000CF90BF90AF909F908F900895CBA4DCA414
:10052000EDA4FEA48FE2882E912C8C0E9D1E898155
:10053000B401A701960101E010E00E948D2200970E
:1005400099F51B828F89988DA98DBA8D4F8D58A1F1
:1005500069A17AA197018601041B150B260B370BA5
:10056000081719072A073B0750F6AA80BB2412E098
:10057000A116B10428F4C3CF8F89988DA98DBA8DA7
:10058000C80ED91EEA1EFB1E8981B401A70196017F
:1005900001E010E00E948D220894A108B10821E03A
:1005A000A216B10449F7ABCF81E090E0AACF0F9338
:1005B0001F93CF93DF93EC010E946F029C01009781
:1005C00069F488818330C1F0898160E040E050E0C7
:1005D0000E94902221E030E0009731F0C901DF91C4
:1005E000CF911F910F91089520E030E0C901DF9174
:1005F000CF911F910F9108958C81813029F7BE0111
:10060000615D7F4FCE01815D9D4FFB011192E81727
:10061000F907E1F7FE01E35DFD4F85E58083FE010B
:10062000E25DFD4F8AEA808382E58FA788AB81E691
:1006300089AB91E49AABFE01ED5EFD4F22E720838A
:10064000FE01EC5EFD4F2083FE01EB5EFD4F9083CB
:10065000FE01EA5EFD4F80833F85288999898A895A
:10066000FE01E95EFD4F3083FE01E85EFD4F208311
:10067000FE01E75EFD4F9083FE01E65EFD4F808345
:100680003B852C859D858E85FE01E55EFD4F308383
:10069000FE01E45EFD4F2083FE01E35EFD4F90838B
:1006A000FE01E25EFD4F80830B8D1C8D2D8D3E8DF6
:1006B0000F5F1F4F2F4F3F4F0BA71CA72DA73EA724
:1006C0008981A901980101E010E00E948D221C821D
:1006D0007BCFAF92BF92CF92DF92EF92FF920F93B8
:1006E0001F93CF93DF935C016A017B01FC0183A51B
:1006F00094A5A5A5B6A584179507A607B70759F130
:10070000C5010E946F02EC01009761F0CE01DF91FC
:10071000CF911F910F91FF90EF90DF90CF90BF90FE
:10072000AF900895B501615D7F4FF5018181A7010B
:10073000960101E010E00E948A22009731F0C1E0AA
:10074000D0E0CC24CA94DC2C7601F501C3A6D4A653
:10075000E5A6F6A6DBCFC0E0D0E0D8CFCF93DF93FD
:10076000EC011B828FEF9FEFDC018BA79CA7ADA74D
:10077000BEA7CE010E946903009721F084E0DF91BB
:10078000CF910895FE01E25DFD4F908180E0FE0172
:10079000E35DFD4F208130E0282B392B8AEA253597
:1007A000380721F083E0DF91CF9108958FA5893E2E
:1007B00039F08B3E11F082E0E2CF89A98039D9F778
:1007C000FE01E859FF4F808190E0A0E0B0E0BA2F31
:1007D000A92F982F8827FE01E959FF4F408150E04B
:1007E00060E070E0842B952BA62BB72BBA2FA92F96
:1007F000982F8827FE01EA59FF4F408150E060E0C2
:1008000070E0842B952BA62BB72BBA2FA92F982FEE
:100810008827FE01EB59FF4F408150E060E070E017
:10082000842B952BA62BB72BB070863421E492072E
:1008300024E5A20720E0B207E1F1FE01EC57FF4FEB
:10084000808190E0A0E0B0E0BA2FA92F982F8827F0
:10085000FE01ED57FF4F408150E060E070E0842BD7
:10086000952BA62BB72BBA2FA92F982F8827FE01DF
:10087000EE57FF4F408150E060E070E0842B952BF5
:10088000A62BB72BBA2FA92F982F8827CF57DF4F2A
:10089000488150E060E070E0842B952BA62BB72BAD
:1008A000863421E4920724E5A20723E3B20709F086
:1008B00082CF80E064CF2F923F924F925F926F92EF
:1008C0007F928F929F92AF92BF92CF92DF92EF92E0
:1008D000FF920F931F93CF93DF93CDB7DEB76F9740
:1008E0000FB6F894DEBF0FBECDBF7B01DB011D92BA
:1008F0001C924F8F0E9461018C014F8D97FD3DC06E
:10090000FC01EE0FFF1FE45EFE4FC080D180C114DA
:10091000D104B1F1F701D182C0826EEFE62EE4225C
:10092000D6018C91882331F011968C910E948622F9
:1009300080FF29C0F60110820183802F0E94882247
:1009400080FF2BC083E090E06F960FB6F894DEBF77
:100950000FBECDBFDF91CF911F910F91FF90EF9010
:10096000DF90CF90BF90AF909F908F907F906F90CF
:100970005F904F903F902F9008958BE090E0E4CFF0
:100980008CE090E0E1CFEE2029F082FF03C08AE006
:1009900090E0DACF80E090E0D7CFEE2011F082FD3A
:1009A000F6CFC60140E050E0BA010E94AE038230AB
:1009B00061F0882499245401843009F472C2823091
:1009C00008F491C08DE090E0BFCF96012F503E4FCC
:1009D0007E010894E11CF11C81E1682E712C6C0EE3
:1009E0007D1E870194E0892E912C8C0C9D1C4BE080
:1009F000442E512C4C0C5D1C5AE0252E312C2C0C15
:100A00003D1CA601475F5F4F5A8B498BC601089674
:100A10009E8B8D8B56016701D9018C91882309F437
:100A200057C07901E818F908F701E40DF51D808138
:100A300090E0A0E0B0E04427582F692F7A2FF7010B
:100A4000E20DF31D808190E0A0E0B0E0482B592B2F
:100A50006A2B7B2B762F652F542F4427E989FA893F
:100A6000EE0DFF1D808190E0A0E0B0E0482B592BF7
:100A70006A2B7B2B762F652F542F4427ED89FE8917
:100A8000EE0DFF1D808190E0A0E0B0E0482B592BD7
:100A90006A2B7B2BF80141935193619371938F01E2
:100AA000205F3F4FE615F70509F0B6CF76016501E7
:100AB000D7018D909D90AD90BD907D0181149104E2
:100AC000A104B10449F483E0E614F70489F774CF74
:100AD00040E050E0BA01DECFC601B501A4010E949A
:100AE000AE03823088F7F60133AD20E082AD90E0AE
:100AF000822B932BF2E080309F0709F063CFF60141
:100B0000EA5BFF4F308120E0F601EB5BFF4F808115
:100B100090E0822B932B7C0100E010E0E114F104C3
:100B200001051105A1F5F601EA5AFF4F408150E099
:100B300060E070E0762F652F542F4427F601EB5AC2
:100B4000FF4F808190E0A0E0B0E0482B592B6A2B4A
:100B50007B2B762F652F542F4427F601EC5AFF4F3D
:100B6000808190E0A0E0B0E0482B592B6A2B7B2BD2
:100B7000EE24F42E052F162FF601ED5AFF4F80813B
:100B800090E0A0E0B0E0E82AF92A0A2B1B2BD6015E
:100B90005796ED92FD920D931C935A97DF964C90C9
:100BA000DF9712964C921297842D8150823008F074
:100BB00009CFDC968C91DC97E82FF0E0FE8BED8B73
:100BC0001A96FC93EE931997309709F4FBCECF0158
:100BD00001978E239F23009709F0F4CEF601EF5B77
:100BE000FF4F908180E0F601E05CFF4F20803324CE
:100BF000282A392A18963C922E921797C1018F7095
:100C00009070009709F0DECEF601ED5BFF4F30816A
:100C100020E0F601EE5BFF4F808190E0822B932B6A
:100C20009C0140E050E0298B3A8B4B8B5C8B21156B
:100C300031054105510509F040C0F601EE5AFF4F5C
:100C4000808190E0A0E0B0E04427582F692F7A2FF0
:100C5000F601EF5AFF4F808190E0A0E0B0E0482B12
:100C6000592B6A2B7B2B762F652F542F4427F601A7
:100C7000E05BFF4F808190E0A0E0B0E0482B592B73
:100C80006A2B7B2BB62FA52F942F8827898B9A8BC5
:100C9000AB8BBC8BF601E15BFF4F808190E0A0E065
:100CA000B0E029893A894B895C89282B392B4A2B5A
:100CB0005B2B298B3A8B4B8B5C8BD601DE969C9100
:100CC000DE9780E0DD966C90DD977724682A792A9C
:100CD0006114710409F476CE242D30E040E050E038
:100CE000C801B7010E9423296B8F7C8F8D8F9E8F47
:100CF000930140E050E02F8B388F498F5A8FC1010C
:100D0000929582958F7089279F7089272C01662480
:100D10007724420E531E641E751E8B8D9C8DAD8DE7
:100D2000BE8D480E591E6A1E7B1E29893A894B8941
:100D30005C89241535054605570508F443CECA01DC
:100D4000B9016419750986099709AD89BE899D01A4
:100D500040E050E00E94422921153105410551052E
:100D600009F430CE263FBFEF3B07B0E04B07B0E0C1
:100D70005B0708F0C3C0263FEFE03E07E0E04E0708
:100D8000E0E05E0708F090C0DA01C9010296A11DFB
:100D9000B11D898B9A8BAB8BBC8BF601838B948BAB
:100DA000A58BB68B838E948EA58EB68E4F89588D6B
:100DB000698D7A8D480D591D6A1D7B1D478F50A383
:100DC00061A372A3D301C201880D991DAA1DBB1D89
:100DD00087A390A7A1A7B2A721E02114310409F4A9
:100DE000F1CD8B8D9C8DAD8DBE8D840F951FA61F73
:100DF000B71FF60183A394A3A5A3B6A349895A8973
:100E00006B897C89440F551F661F771F2230A9F01C
:100E100089899A89AB89BC89480F591F6A1F7B1F32
:100E2000769567955795479581709070A070B070D2
:100E3000480F591F6A1F7B1F21E041505E4F6F4FC3
:100E40007F4F89E076956795579547958A95D1F7B5
:100E5000E416F5060607170708F4B4CD8FEF9FEFE9
:100E6000DC01F6018787908BA18BB28B83879487F7
:100E7000A587B68780E88483233009F4C2C0D601F1
:100E80002C9380911E0190911F01019690931F0158
:100E900080931E0116969C938E93159780E090E0A8
:100EA00053CD81E090E050CDDA01C9010296A11D39
:100EB000B11D898B9A8BAB8BBC8BF601838B948B8A
:100EC000A58BB68B838E948EA58EB68E4F89588D4A
:100ED000698D7A8D480D591D6A1D7B1D478F50A362
:100EE00061A372A3D301C201880D991DAA1DBB1D68
:100EF00087A390A7A1A7B2A722E06FCFDA01C9010B
:100F00000296A11DB11D898B9A8BAB8BBC8BF60110
:100F1000838B948BA58BB68B838E948EA58EB68E89
:100F20008F89988DA98DBA8D880D991DAA1DBB1D1D
:100F3000878F90A3A1A3B2A3D301C201880D991DED
:100F4000AA1DBB1D87A390A7A1A7B2A7E65AFF4F72
:100F5000308120E0F601E75AFF4F808190E0822B3C
:100F6000932B009709F02ECD2114310409F02ACDDE
:100F7000F601E25AFF4F808190E0A0E0B0E0442704
:100F8000582F692F7A2FF601E35AFF4F808190E0A6
:100F9000A0E0B0E0482B592B6A2B7B2B762F652FD6
:100FA000542F4427F601E45AFF4F808190E0A0E0DF
:100FB000B0E0482B592B6A2B7B2B762F652F542FB3
:100FC0004427F601E55AFF4F808190E0A0E0B0E0B1
:100FD000482B592B6A2B7B2BD60193964D935D930F
:100FE0006D937C93969749895A896B897C89440FC4
:100FF000551F661F771F440F551F661F771F23E07D
:101000001CCFE05AFF4F508140E0F601E15AFF4FFC
:10101000808190E0842B952B8130910509F02FCFB2
:10102000B501A4014F5F5F4F6F4F7F4FC6012F8FF8
:101030000E9469032F8D009709F021CFD6011496E5
:101040001C921497F601E25DFD4F508140E0F601DD
:10105000E35DFD4F808190E0842B952BBAEA8535C6
:101060009B0709F00CCFF60182A990E0A0E0B0E068
:10107000BA2FA92F982F882741A950E060E070E08F
:10108000842B952BA62BB72BBA2FA92F982F882707
:1010900040A950E060E070E0842B952BA62BB72B85
:1010A000BA2FA92F982F882747A550E060E070E05D
:1010B000842B952BA62BB72B8235F2E59F07F1E603
:1010C000AF07F1E4BF0709F0DACEF601EA5EFD4FA3
:1010D000808190E0A0E0B0E0BA2FA92F982F882758
:1010E000F601EB5EFD4F408150E060E070E0842B44
:1010F000952BA62BB72BBA2FA92F982F8827F6014F
:10110000EC5EFD4F408150E060E070E0842B952B59
:10111000A62BB72BBA2FA92F982F8827F601ED5EA3
:10112000FD4F408150E060E070E0842B952BA62BB2
:10113000B72B823732E7930731E4A30731E6B307D1
:1011400009F09DCEF601E65EFD4F808190E0A0E0C3
:10115000B0E0BA2FA92F982F8827F601E75EFD4F40
:10116000408150E060E070E0842B952BA62BB72BDC
:10117000BA2FA92F982F8827F601E85EFD4F4081EE
:1011800050E060E070E0842B952BA62BB72BBA2F94
:10119000A92F982F8827F601E95EFD4F408150E086
:1011A00060E070E0842B952BA62BB72BF601878788
:1011B000908BA18BB28BE25EFD4F808190E0A0E02E
:1011C000B0E0BA2FA92F982F8827F601E35EFD4FD4
:1011D000408150E060E070E0842B952BA62BB72B6C
:1011E000BA2FA92F982F8827F601E45EFD4F408182
:1011F00050E060E070E0842B952BA62BB72BBA2F24
:10120000A92F982F8827F601E55EFD4F408150E019
:1012100060E070E0842B952BA62BB72BF60183871B
:101220009487A587B6872BCEBF92CF92DF92EF929D
:10123000FF920F931F93CF93DF93EC016A017B0121
:10124000423051056105710588F08B899C89AD8913
:10125000BE89481759076A077B0740F488818230A6
:1012600009F477C0833079F1813081F001E010E03A
:1012700020E030E0B801C901DF91CF911F910F91BB
:10128000FF90EF90DF90CF90BF9008958A01169560
:101290000795040F151FA801452F5527469560E0B7
:1012A00070E08F8D98A1A9A1BAA1480F591F6A1F9C
:1012B0007B1FCE010E946903009709F46BC00FEFFA
:1012C0001FEF9801D7CFE7E076956795579547953B
:1012D000EA95D1F78F8D98A1A9A1BAA1480F591FFE
:1012E0006A1F7B1FCE010E946903009741F7F60138
:1012F000EE0FFF1FEE0FFF1FF170EC0FFD1F02A995
:1013000010E020E030E0322F212F102F002781A99C
:1013100090E0A0E0B0E0082B192B2A2B3B2B322FBA
:10132000212F102F002780A990E0A0E0B0E0082B2B
:10133000192B2A2B3B2B322F212F102F002787A56B
:1013400090E0A0E0B0E0082B192B2A2B3B2B3F703C
:1013500091CF452F562F672F77278F8D98A1A9A161
:10136000BAA1480F591F6A1F7B1FCE010E94690353
:10137000009709F0A4CFF601EE0FFF1FF170EC0FFC
:10138000FD1F90A980E007A510E0082B192B20E095
:1013900030E070CFF801F170EC0FFD1FB7A40F5FC4
:1013A0001F4FA801452F5527469560E070E08F8DAF
:1013B00098A1A9A1BAA1480F591F6A1F7B1FCE018E
:1013C0000E946903009709F07ACF2B2D30E0F801D5
:1013D000F170EC0FFD1F97A580E0282B392B81E0E1
:1013E000C822DD24C114D10451F0329522952F700A
:1013F00023273F702327890120E030E03BCF89017C
:1014000020E030E01F702070307034CF8F929F92B8
:10141000AF92BF92CF92DF92EF92FF920F931F9302
:10142000CF93DF93EC016A017B01480159014230FF
:1014300051056105710548F08B899C89AD89BE898C
:10144000481759076A077B0778F082E090E0DF9140
:10145000CF911F910F91FF90EF90DF90CF90BF90B1
:10146000AF909F908F9008958881823009F493C047
:10147000833009F459C0813041F78A0116950795E8
:101480000C0D1D1DA801452F5527469560E070E005
:101490008F8D98A1A9A1BAA1480F591F6A1F7B1F60
:1014A000CE010E946903009791F6F801F1700F5F79
:1014B0001F4F81E0C822DD24C114D10409F488C083
:1014C000EC0FFD1F97A59F70882D8295807F892B3B
:1014D00087A781E08B83A801452F5527469560E0BB
:1014E00070E08F8D98A1A9A1BAA1480F591F6A1F5A
:1014F0007B1FCE010E946903009709F0A8CF1170ED
:10150000C114D10409F468C0B501A40124E07695A2
:101510006795579547952A95D1F7FE01E00FF11F82
:1015200047A721E02B8393CFB7E076956795579532
:101530004795BA95D1F78F8D98A1A9A1BAA1480F67
:10154000591F6A1F7B1FCE010E946903009709F093
:101550007ECFF601EE0FFF1FEE0FFF1FF170EC0FB5
:10156000FD1F42A950E060E070E0342F22271127D0
:101570000027007010702070307FB501A4017F70CB
:10158000042B152B262B372B07A710AB21AB32AB27
:1015900021E02B835CCF452F562F672F77278F8D28
:1015A00098A1A9A1BAA1480F591F6A1F7B1FCE019C
:1015B0000E946903009709F04ACFF601EE0FFF1F62
:1015C000F170EC0FFD1F87A690AA21E02B833FCF7F
:1015D000882DEC0FFD1F7CCFFE01E00FF11F47A50A
:1015E000407F292D2F70422B9BCF2F923F924F92FD
:1015F0005F926F927F928F929F92AF92BF92CF92A3
:10160000DF92EF92FF920F931F93CF93DF93EC0142
:101610001A012B016880798041155105610571051A
:1016200009F0B6C0F30183849484A584B684811440
:101630009104A104B10409F049C083899489A58962
:10164000B68911E0812E912CA12CB12C7501640179
:101650000894C11CD11CE11CF11CC816D906EA066D
:10166000FB0660F0F2E08F169104A104B10408F4C7
:101670008BC072E0C72ED12CE12CF12C888199818E
:10168000B701A6010E9414098B019C016115710527
:101690008105910561F1613071058105910509F4BC
:1016A0005EC00F3F8FEF18078FEF28078FEF3807C7
:1016B00009F455C0C814D904EA04FB0409F464C051
:1016C000F30183899489A589B689C2CFF3018389FF
:1016D0009489A589B68988169906AA06BB0608F4D6
:1016E000B5CFE1E08E2E912CA12CB12CAFCFCC2D1B
:1016F0008D2CDE2DBF2CC301A601B7010FEF1FEF0C
:1017000098010E94060A009709F070C02114310464
:101710004104510409F060C0F301C3878486D58772
:10172000B686478550896189728983899489A5899C
:10173000B6890297A109B109481759076A077B07BB
:1017400040F441505040604070404787508B618B5F
:10175000728BF30184818160848397018601B801D3
:10176000C901DF91CF911F910F91FF90EF90DF9012
:10177000CF90BF90AF909F908F907F906F905F9031
:101780004F903F902F90089500E010E09801E7CF30
:10179000C3010E9414098B019C016230710581050F
:1017A0009105A8F06F3FFFEF7F07FFEF8F07FFEF77
:1017B0009F07A9F2F30183899489A589B68908173F
:1017C00019072A073B0758F2520141013FCF01E0B8
:1017D00010E020E030E0C3CFC301B201A1018601D7
:1017E00097010E94060A009709F496CF813091056F
:1017F00071F70FEF1FEF9801B2CF4F925F926F9288
:101800007F928F929F92AF92BF92CF92DF92EF9290
:10181000FF920F931F93CF93DF93CDB7DEB7279738
:101820000FB6F894DEBF0FBECDBF4C018B01DC01BB
:10183000AD90BC9011971E968D919D910D90BC918D
:10184000A02DF40146895789608D718D4115510590
:1018500061057105C9F484E090E027960FB6F8940D
:10186000DEBF0FBECDBFDF91CF911F910F91FF90D3
:10187000EF90DF90CF90BF90AF909F908F907F9030
:101880006F905F904F900895E0E2CE2ED12CE12C26
:10189000F12CC80ED91EEA1EFB1EF0E0CF16F0E0B8
:1018A000DF06F0E2EF06F0E0FF06A8F6D701C6017A
:1018B0009170A070B0700097A105B10509F089C0C2
:1018C0004F5F5F4F6F4F7F4FD40156964D935D939F
:1018D0006D937C93599752964D905D906D907C904E
:1018E0005597411451046104710409F485C0F50150
:1018F000818592850197A0E0B0E0B701A60129E0BB
:1019000076956795579547952A95D1F78423952322
:10191000A623B7230097A105B10509F05AC0C50158
:10192000B301A2010E9414092B013C016230710530
:101930008105910508F47DC06F3F2FEF72072FEFEF
:1019400082072FEF920709F48CC0F50183899489EF
:10195000A589B689481659066A067B0608F06CC048
:10196000A3019201225030404040504029833A83E5
:101970004B835C83F401428A538A648A758A029796
:10198000A109B10929813A814B815C812817390766
:101990004A075B0708F068C0D50119962D913C9164
:1019A0001A9740E050E069817A818B819C810E9486
:1019B0002329DC01CB01F50147A150A561A572A542
:1019C000840F951FA61FB71FF401868B978BA08FDE
:1019D000B18FD4011E96CD92DD92ED92FC9251977B
:1019E000C60191708F968A0D9B1D5B969C938E937A
:1019F0005A9780E090E031CFB701A60135E07695A7
:101A00006795579547953A95D1F7F5018781908568
:101A1000A0E0B0E0481759076A077B07D0F2D4016D
:101A200056961D921D921D921C92599784E090E04B
:101A300014CF82E090E011CF0115110581F3F4017C
:101A40004289538964897589C4010E94F50A2B0172
:101A50003C01611571058105910551F487E090E025
:101A6000FCCE81E090E0F9CE80E090E0DC01ACCFEC
:101A70006130710581059105E1F26F3F2FEF72072B
:101A80002FEF82072FEF920761F3C5010E946F02CB
:101A9000009739F7F501BF96C501815D9D4F119201
:101AA000E817F907E1F7D301C2010297A109B109CB
:101AB00089839A83AB83BC83F50183899489A58943
:101AC000B6890297A109B10929813A814B815C81CC
:101AD000281739074A075B0708F055C001851285AA
:101AE000980140E050E069817A818B819C810E945D
:101AF0002329DC01CB01F50147A150A561A572A501
:101B0000840F951FA61FB71FF50183A794A7A5A74C
:101B1000B6A740E050E021E01FC0D50113962C93FA
:101B2000C5012F834D835E830E946F022F814D81FB
:101B30005E81009709F095CF4F5F5F4FF50183A558
:101B400094A5A5A5B6A50196A11DB11D83A794A72F
:101B5000A5A7B6A70185128540175107F0F260E0EE
:101B600070E0F50183A594A5A5A5B6A5841B950BEA
:101B7000A60BB70B83A794A7A5A7B6A783899489BB
:101B8000A589B689F7CE80E090E0DC01F5010185FA
:101B90001285BACF6F927F928F929F92AF92BF922F
:101BA000CF92DF92EF92FF920F931F93CF93DF9329
:101BB0003C016A017B01FC01C081D18142305105A9
:101BC0006105710548F08B899C89AD89BE894817EC
:101BD00059076A077B0790F0E2E0F0E0CF01DF9160
:101BE000CF911F910F91FF90EF90DF90CF90BF901A
:101BF000AF909F908F907F906F9008950115110581
:101C00002105310509F050C0CE01B701A6010E949F
:101C100014094B015C01611571058105910509F4F9
:101C200053C06130710581059105B1F28FEF8816BF
:101C30008FEF98068FEFA8068FEFB80609F447C01C
:101C4000CE01B701A60100E010E098010E94060A4B
:101C5000FC01009719F68F859889A989BA890B89A3
:101C60001C892D893E89B901A8014250504060402D
:101C7000704084179507A607B70750F40196A11D79
:101C8000B11D8F87988BA98BBA8B8C8181608C83D7
:101C900080169106A206B30608F0A0CFF30180815A
:101CA000918175016401B1CFCE01B901A8010FEF97
:101CB0001FEF98010E94060AFC01009709F08ECFE1
:101CC000F30180819181A1CFE0E0F0E087CFE1E0F6
:101CD000F0E084CF0F931F93CF93DF93EC01088143
:101CE000198184E090E01DC0C8010E94690300973B
:101CF00051F5EA8DFB8D3081332319F123852F7344
:101D00002C83353E39F03E3229F02F3019F02F71F7
:101D1000283091F4CE0160E070E00E94FD0B009746
:101D200091F44E895F89688D798D41155105610562
:101D30007105D1F6009739F4DF91CF911F910F9182
:101D4000089584E090E01E8A1F8A188E198EDF9114
:101D5000CF911F910F910895AF92BF92CF92DF92D2
:101D6000EF92FF920F931F93CF93DF93EC01A88024
:101D7000B9801E861F86188A198ACE80DF80E88483
:101D8000F984C114D104E104F10471F4F5018081F6
:101D90008330B8F083A194A1A5A1B6A10097A105B5
:101DA000B10579F06C017D01F5010185128520E016
:101DB00030E0011511052105310509F04FC0C501BD
:101DC00024C0F50187819085009781F582E090E03D
:101DD000DF91CF911F910F91FF90EF90DF90CF9007
:101DE000BF90AF90089582E0C816D104E104F104D9
:101DF00068F3F50183899489A589B689C816D9063F
:101E0000EA06FB0618F788819981B701A6010E94AE
:101E100014096B017C016F3FFFEF7F07FFEF8F0716
:101E2000FFEF9F0701F781E090E0D2CF83A194A15B
:101E3000A5A1B6A18E8B9F8BA88FB98FCA8ADB8A8A
:101E4000EC8AFD8A0097A105B10509F4BFCFC50151
:101E50008F969B8F8A8F80E090E0BACFB701A60162
:101E60004250504060407040F50183899489A589B3
:101E7000B6890297A109B109481759076A077B0774
:101E8000B0F4CB01BA01A90198010E942329DC0119
:101E9000CB01F50147A150A561A572A5840F951F3F
:101EA000A61FB71F8E8B9F8BA88FB98FC7CF80E0DF
:101EB00090E0DC01F7CFEF92FF920F931F93CF9347
:101EC000DF938C01DC01ED90FC900E94AC0EEC01E4
:101ED0000097B1F0C430D10509F452C0CE01DF91B2
:101EE000CF911F910F91FF90EF9008958823D9F023
:101EF000C80161E070E00E94FD0BEC01009751F712
:101F0000F80146895789608D718DC7010E94690368
:101F1000EC010097F9F6D8015A96ED91FC915B9788
:101F20008081853E19F7F80146895789608D718D4A
:101F3000C7010E946903EC01009781F6D8015A9607
:101F4000ED91FC915B97CF0180961192E817F9070C
:101F5000E1F7B801645E7F4FF801828D938D4BE00D
:101F600050E00E94D20181E0D70113968C93139721
:101F7000CE01DF91CF911F910F91FF90EF900895C7
:101F8000C7E0D0E0CE01DF91CF911F910F91FF907C
:101F9000EF9008952F923F924F925F926F927F92AF
:101FA0008F929F92AF92BF92CF92DF92EF92FF9269
:101FB0000F931F93CF93DF9300D000D0CDB7DEB740
:101FC0007C01DC014D905C901197CB01FC012081DC
:101FD00001962F32D9F32C35C9F36F01F701168220
:101FE000178210861186D6018C91803208F416C1B2
:101FF0008CE1882E912C8E0C9F1CC701879610E2D5
:1020000005E02DE1622E712C6E0C7F1C56019C8325
:102010008B83F4018B819C811193E817F907E1F719
:102020009C838B8360E070E040E050E0A8E0B0E08B
:10203000F501E40FF51F20816A010894C11CD11C31
:10204000213208F4E8C02F3209F46DC02C3509F4B0
:102050006AC02E3249F16A177B0730F5822F81580A
:102060008F3108F440C08F558D31E8F1422F50E098
:1020700042325105F1F0EDE0F1E006C0992787FD0D
:10208000909548175907A9F081918823B9F7822FB5
:1020900081568A3108F42052F701E60FF71F248F8A
:1020A0006F5F7F4FA601C4CFAB30B10511F02E3268
:1020B000A1F146E050E0CA010F900F900F900F90F1
:1020C000DF91CF911F910F91FF90EF90DF90CF9014
:1020D000BF90AF909F908F907F906F905F904F9048
:1020E0003F902F900895F501EC0DFD1D3081832F59
:1020F00080548F3318F080548D37D8F6CD01019776
:1021000068177907B0F64E5F5F4FF701E60FF71FCC
:10211000248F358F6E5F7F4F8BCFA60168E070E014
:10212000ABE0B0E085CFF501EC0DFD1D4B815C818E
:102130005F0181918F32E1F38C35D1F35C834B8366
:102140006115710509F4B5CFD7015C968C915C9748
:10215000853E09F4BBC0213208F468C080E0F70175
:1021600087A3C080D180C7010E94AC0EAC0100974C
:1021700009F046C08B819C81FC82EB827C01AB81A3
:10218000BC8156964D915D916D917C915997C60198
:102190000E946903AC01009789F5AB81BC815A9616
:1021A000ED91FC915B978081882309F441C0938570
:1021B0009F7314969C931497838583FD16C0DF014B
:1021C0002D9130E0F4018081281B3109F3012115A4
:1021D000310559F42D9130E08191281B3109EE151C
:1021E000FF05A9F72115310551F18B819C8160E034
:1021F00070E00E94FD0BAC01009709F2EB80FC80BF
:10220000F70187A14430510509F055CF82FD62C026
:1022100045E050E050CFAC0CBD1C92CF80E8F701F8
:1022200087A3C7010E94AC0EAC0145CF84E097CFD5
:10223000EB80FC80D70197968C919797E7CF970119
:10224000EB80FC803C832B83F70187A182FD33CF99
:1022500094FFDECFD7011E962D913C911F973170D0
:10226000240D351DF901E65BFF4F30802224F90172
:10227000E75BFF4F808190E082299329AC0160E009
:1022800070E0F2018081833041F0D70116964D93C2
:102290005D936D937C931997BCCEF901EC5BFF4F76
:1022A00080818A831982F901ED5BFF4F808190E084
:1022B00029813A81822B932BA0E0B0E0DC019927A1
:1022C0008827482B592B6A2B7B2BDFCF5C960C93EE
:1022D0005C9741CF44E050E0EECECF93DF93CDB793
:1022E000DEB727970FB6F894DEBF0FBECDBF9C8335
:1022F0008B837E836D837A836983CE0101964F83BE
:102300000E9461014F8197FD23C0880F991FFC0136
:10231000E45EFE4F0190F081E02D309709F01082CD
:10232000EB81FC813097B9F01082845E9E4FDC0116
:102330001196FC93EE934130B1F080E090E0279647
:102340000FB6F894DEBF0FBECDBFDF91CF910895D9
:102350008BE090E0F4CF845E9E4FFC0111821082EE
:1023600080E090E0ECCFCE010596BE016D5F7F4F1F
:1023700040E00E945B04E3CF2F923F924F925F9226
:102380006F927F928F929F92AF92BF92CF92DF9285
:10239000EF92FF920F931F93CF93DF93CDB7DEB7EA
:1023A000E0970FB6F894DEBF0FBECDBF7C017CA7CF
:1023B0006BA7009759F18FE3B82EB422CE018B960C
:1023C000BE016F5F7F4F4B2D0E945B046C01009735
:1023D00009F1F70111821082C601E0960FB6F89458
:1023E000DEBF0FBECDBFDF91CF911F910F91FF9048
:1023F000EF90DF90CF90BF90AF909F908F907F90A5
:102400006F905F904F903F902F900895A9E0CA2E53
:10241000D12CE2CF89819A819C838B836BA57CA58B
:10242000CE0103960E94CA0F9C01009719F48AA559
:1024300087FDF5C10B2D10E0C8018C7190700097DD
:1024400009F484C02115310509F4BFC124303105D8
:1024500009F0C2C1CE0103960E945B0F9C01009758
:1024600009F0BAC188E0B82A0B2D03FFDBC1ED8D5E
:10247000FE8D1686178691E2908B88E4818BED8D18
:10248000FE8D168A178A908F818FED8DFE8D80E2EA
:10249000838789809A80ED8DFE8D338D20E0828D3B
:1024A00090E0822B932B2C0166247724D4018C910D
:1024B000833009F4C3C1128E138ED4018C91833002
:1024C00009F4B9C1ED8DFE8D148E158E168E178E02
:1024D00081E0D40113968C93139741145104610445
:1024E000710409F447C09B968D919D910D90BC910C
:1024F000A02D8DA79EA7AFA7B8ABCE010396B301C1
:10250000A20100E010E098010E94CA0D9C01009712
:1025100009F062C189819A814DA55EA56FA578A950
:102520000E9469039C0189809A80D301C2010197AE
:10253000A109B109F40183879487A587B68721157E
:10254000310509F049C1ED8DFE8D14C0211531050D
:1025500009F042C18F8184FD6AC1B1FE02C080FDD5
:102560004AC1C8018870907089809A80ED8DFE8D77
:10257000009719F080E4B82A0B2DD4019B964D9159
:102580005D916D917C919E97D7015C964D935D9383
:102590006D937C935F979196FC93EE939097338D18
:1025A00020E0828D90E0822B932BAC0160E070E004
:1025B000D4018C91833009F422C1D70116964D9332
:1025C0005D936D937C931997878D90E0A0E0B0E0C8
:1025D0004427582F692F7A2F868D90E0A0E0B0E035
:1025E000482B592B6A2B7B2B762F652F542F442792
:1025F000858D90E0A0E0B0E0482B592B6A2B7B2B17
:10260000762F652F542F4427848D90E0A0E0B0E012
:10261000482B592B6A2B7B2BF70142875387648702
:10262000758791828082D40115968D919C91169721
:1026300093838283B6861786108E118E128E138E28
:10264000108A118A128A138A32E2232E312C2E0C20
:102650003F1CC7018E5D9D4FF1011192E817F907EC
:10266000E1F705FFB9CEF701428453846484758491
:10267000411451046104710409F4AECED701408ABB
:10268000518A628A738AF401818592854C01AA2459
:10269000BB2429E0880C991CAA1CBB1C2A95D1F7E5
:1026A00016964D915D916D917C91199784149504C6
:1026B000A604B704F8F4D7018D919C910E941409E7
:1026C000AB01BC01423051056105710508F48FC0B2
:1026D0004F3FBFEF5B07BFEF6B07BFEF7B0709F40F
:1026E0007DC0481859086A087B0884149504A6041C
:1026F000B70408F3D70154964D935D936D937C9383
:102700005797D301C2019170A070B0700097A105D6
:10271000B10509F461CEE981FA81FEA7EDA79EEF2C
:10272000892E9FEF992E9FEFA92E9FEFB92E840E31
:10273000951EA61EB71E83899489A589B68902971E
:10274000A109B10988169906AA06BB0608F086C039
:102750002185328540E050E0C501B4010E94232963
:10276000AB01BC01EDA5FEA587A190A5A1A5B2A5D1
:10277000480F591F6A1F7B1F4115510561057105DF
:1027800009F46CC09301820189E03695279517956D
:1027900007958A95D1F7040F151F261F371FD701FC
:1027A00058960D931D932D933C935B978181B101B6
:1027B000A901980101E010E00E948A22009709F423
:1027C0000BCE11E0C12ED12C04CE8F81817199F4F2
:1027D000B2FE4BCE28E030E06901FBCDE1E0CE2E29
:1027E000D12CF701448B558B668B778BF2CDF2E0C1
:1027F000CF2ED12CF6CF27E030E06901EACD358924
:1028000020E0848990E0822B932BA0E0B0E0DC01F3
:1028100099278827482B592B6A2B7B2BCECE26E075
:1028200030E008CE89809A80ED8DFE8DA6CE24E022
:1028300030E06901CECD148A158A44CE358920E076
:10284000848990E0822B932BA0E0B0E0DC019927F3
:102850008827482A592A6A2A7B2A2DCEB2E0CB2E15
:10286000D12CB7CD2F923F924F925F926F927F9271
:102870008F929F92AF92BF92CF92DF92EF92FF9290
:102880000F931F93CF93DF93CDB7DEB72A970FB681
:10289000F894DEBF0FBECDBF5C01E62EC72E3A0115
:1028A0003C832B83F90111821082BE016F5F7F4F41
:1028B0000E9497012C01009761F4F501478455248B
:1028C0004114510431F4868580FD1DC097E0492EE6
:1028D000512CC2012A960FB6F894DEBF0FBECDBFB1
:1028E000DF91CF911F910F91FF90EF90DF90CF90EC
:1028F000BF90AF909F908F907F906F905F904F9020
:102900003F902F900895008911892289338982850B
:102910009385A485B585801B910BA20BB30BA301F6
:1029200060E070E084179507A607B70708F43C013C
:102930006114710471F2ED82CE82C501829698878E
:102940008F835A8649864501D901C8019170A070CC
:10295000B0700097A105B10509F060C029803A80E8
:10296000D901C80149E0B695A795979587954A95ED
:10297000D1F7F101A184B2840894A108B108A8227A
:10298000B922F401A114B10409F481C084899589A4
:10299000A689B7891EEFC12E1FEFD12E1FEFE12EA2
:1029A0001FEFF12EC80ED91EEA1EFB1EF10183890E
:1029B0009489A589B6890297A109B109C816D906D3
:1029C000EA06FB0608F484C082E0F4018787A2E0EF
:1029D0004A2E512C7ECFF401008D118D228D338D26
:1029E0000C151D052E053F0581F0868587FDC8C0A5
:1029F000F10181816F817885A701960101E010E0E6
:102A00000E948A22009709F0A9C0F401C08ED18EDD
:102A1000E28EF38E0089118922893389B8017170A1
:102A2000E12C22E0F22EE61AF70A6E147F0408F475
:102A300073016E5D7F4F680D791D8D819E81A701A9
:102A40000E94D2012D813E812E0D3F1D3E832D839C
:102A5000870120E030E0F40180899189A289B3895F
:102A6000080F191F2A1F3B1F008B118B228B338BE2
:102A7000EB81FC81808191818E0D9F1D91838083EC
:102A80006E187F0809F060CF49845A8422CF01155F
:102A900011052105310509F068C086819781A0855F
:102AA000B18582309105A105B10508F48DCF8F3F26
:102AB000FFEF9F07FFEFAF07FFEFBF0709F44EC01F
:102AC000F401848B958BA68BB78B29803A8062CFDB
:102AD00001851285980140E050E0C701B6010E94CF
:102AE0002329AB01BC01F10187A190A5A1A5B2A545
:102AF000480F591F6A1F7B1F41155105610571055C
:102B000009F462CF6501EE24FF24C40ED51EE61E33
:102B1000F71E2301452C552446944114510409F411
:102B20005ACFC501840D951D0817190718F42801FF
:102B30004A185B08F10181816D817E81A7019601B0
:102B400082010E948A22009749F4F401868587FD5C
:102B50002AC07201FE2CEE24FF0C74CF81E0F40138
:102B6000878731E0432E512CB4CE4489558966893C
:102B70007789808191810E941409DC01CB0191CF7A
:102B8000F10181816F817885A901980101E010E050
:102B90000E948D22009711F7F40186858F77868732
:102BA00029803A8025CF408D518D628D738D4C19CF
:102BB0005D096E097F09C201A0E0B0E0481759071E
:102BC0006A077B0730F6CA01982F8827990F2D8155
:102BD0003E81820F931F6F81788540E052E00E9412
:102BE000D201B7CF2F923F924F925F926F927F9216
:102BF0008F929F92AF92BF92CF92DF92EF92FF920D
:102C00000F931F93CF93DF93CDB7DEB72C970FB6FB
:102C1000F894DEBF0FBECDBF7C01062F872E3A0190
:102C20003C832B83D9011D921C92BE016F5F7F4FA5
:102C30000E9497011C01009761F4F7012784332457
:102C40002114310431F4268521FD1DC057E0252EC5
:102C5000312CC1012C960FB6F894DEBF0FBECDBF4C
:102C6000DF91CF911F910F91FF90EF90DF90CF9068
:102C7000BF90AF909F908F907F906F905F904F909C
:102C80003F902F9008954089518962897389C301CB
:102C9000A0E0B0E0840F951FA61FB71F841795070B
:102CA000A607B70718F43A01609470946114710490
:102CB00009F400C10D838E8297012E5D3F4F3A8744
:102CC00029873C862B862301DB01CA019170A07005
:102CD000B0700097A105B10509F091C029803A8034
:102CE000DB01CA0109E0B695A795979587950A95E6
:102CF000D1F7F101C184D2840894C108D108C82257
:102D0000D922C114D10499F5411551056105710508
:102D100009F03CC1F70186819781A085B1850097B4
:102D2000A105B10509F45FC181309105A105B10587
:102D3000E9F18F3FEFEF9E07EFEFAE07EFEFBE0732
:102D400009F468C1F701848B958BA68BB78B4681FC
:102D5000578160857185411551056105710529F41B
:102D6000F70186839783A087B18729803A80D701AE
:102D70001E968C911E9787FD1FC1D70154960D9109
:102D80001D912D913C9157970250104020403040AA
:102D9000F10183899489A589B6890297A109B109AE
:102DA000081719072A073B0708F488C082E0D701F3
:102DB0001F968C931F9712E0212E312C4ACFF701DA
:102DC000808D918DA28DB38D88159905AA05BB05BF
:102DD00009F4CFC0408951896289738982859385BE
:102DE000A485B585481759076A077B0708F404C10D
:102DF000D70158968D929D92AD92BC925B97CA0175
:102E0000917000E012E0081B190B4016510608F4FF
:102E1000820182968E0D9F1D6D817E81A8010E9488
:102E2000D201F7018685806886872D813E81200F3B
:102E3000311F3E832D83A80160E070E0F701808997
:102E40009189A289B389480F591F6A1F7B1F408B44
:102E5000518B628B738B82859385A485B585F42F06
:102E6000E52F362F272F481759076A077B0720F4CD
:102E7000F82FE92F3A2F2B2FD7011A96FC931A9788
:102E80001B96EC931B971C963C931C971D962C93BA
:102E90001D97EB81FC8180819181800F911F91832F
:102EA0008083401A510A09F00FCF2B843C841E9670
:102EB0002C911E972064F7012687CBCE4185528541
:102EC00058874F83BA0180E090E0A90198010E94E1
:102ED0002329AB01BC01F10187A190A5A1A5B2A551
:102EE000480F591F6A1F7B1F411551056105710568
:102EF00009F45CCF4601AA24BB24840E951EA61EAD
:102F0000B71E3201672C772466946114710409F4AA
:102F100056CFC601860D971DEF81F885E817F90792
:102F200018F43F016C187D08D10111968C916D81C8
:102F30007E81A501940183010E948D220097F9F4FE
:102F4000D70158964D915D916D917C915B97481991
:102F500059096A097B09C301A0E0B0E04817590785
:102F60006A077B0708F45FC08301102F0027110F49
:102F70005CCFF701408951896289738939CF81E03B
:102F8000F7018787A1E02A2E312C63CED701549612
:102F90004D915D916D917C915797C7010E94F50A03
:102FA000DC01CB010097A105B10509F0BDCE2B8452
:102FB0003C84F70126857ECF58962D913D914D9109
:102FC0005C915B97F101818169857A8501E010E070
:102FD0000E948D220097F1F4F70186858F7786870E
:102FE00029803A80CACEC70140E050E0BA010E9471
:102FF000F50ADC01CB01D6CFD10111968C91698500
:103000007A85A501940101E010E00E948A220097D0
:1030100009F4AFCF81E0D7011F968C931F9761E031
:10302000262E312C16CEBA01762F6627770FED812A
:10303000FE816E0F7F1F89859A8540E052E00E94D5
:10304000D201D7011E968C911E978F771E968C9376
:103050001E978ACFEF92FF920F931F93CF93DF9328
:1030600000D0CDB7DEB77C01BE016F5F7F4F0E94FD
:103070009701009709F055C0D7011E962C911E9715
:1030800026FF4FC027FD56C0D7015C964D915D913C
:103090006D917C915F9789819A810E946903009765
:1030A00009F03FC0D7019096ED91FC9191978385EF
:1030B000806283878D919C91119716964D915D91B9
:1030C0006D917C911997428F538FDC018C918330E5
:1030D00009F44AC0D7011A963C911A971B962C9175
:1030E0001B971C969C911C971D968C91348F258F55
:1030F000968F878F168A178A81E2808F88E4818F66
:10310000128A138A89819A8121E0FC0123830E941B
:10311000D702D7011E962C911E972F7B1E962C93BB
:103120001E970F900F90DF91CF911F910F91FF90FD
:10313000EF900895E981FA81B7016E5D7F4F58964F
:103140002D913D914D915C915B97818101E010E063
:103150000E948D22009729F4F70186858F77868754
:1031600093CF81E090E0DDCFAB0166277727448BDA
:10317000558BB0CF0F931F93CF93DF9300D0CDB774
:10318000DEB78C010E942A18009739F00F900F903B
:10319000DF91CF911F910F910895C801BE016F5F1C
:1031A0007F4F0E949701009789F7F80111821082E2
:1031B0000F900F90DF91CF911F910F9108954F9233
:1031C0005F926F927F928F929F92AF92BF92CF92B7
:1031D000DF92EF92FF920F931F93CF93DF93CDB7C0
:1031E000DEB72A970FB6F894DEBF0FBECDBF5C01E5
:1031F0002A013B01BE016F5F7F4F0E9497014C0186
:10320000009709F02CC1D5011F968C901F97992427
:103210008114910409F023C11A968D919D910D900E
:10322000BC91A02D84159505A605B70530F4F501D0
:10323000268521FD02C02C013D01F501808991897F
:10324000A289B389108A118A128A138A41145104FF
:103250006104710409F403C1E981FA81C184D28453
:10326000EE24FF2409E0CC0CDD1CEE1CFF1C0A95AB
:10327000D1F70097A105B10551F19C01AD01215095
:103280003040404050402F83388749875A87C301D8
:10329000B2016150704080409040A70196010E94A9
:1032A00042292B833C834D835E836F81788589859A
:1032B0009A85A70196010E9442298B819C81AD814C
:1032C000BE8182179307A407B50708F0E7C0F50190
:1032D00046815781608571854115510561057105EC
:1032E00009F401C11B821C821D821E82F501448BE0
:1032F000558B668B778B411551056105710509F476
:103300005CC0C414D504E604F70408F04AC18B81FC
:103310009C81AD81BE813DC0C5010E94F50AAB0113
:10332000BC01411551056105710509F49FC14F3F6D
:10333000FFEF5F07FFEF6F07FFEF7F0709F48DC116
:10334000423051056105710508F410C1E981FA8127
:1033500083899489A589B689481759076A077B0725
:1033600008F004C14C185D086E087F08D50154961A
:103370004D935D936D937C935797C414D504E604E5
:10338000F70408F003C150968D919D910D90BC916A
:10339000A02D8C0D9D1DAE1DBF1DF501808B918B49
:1033A000A28BB38B868581FDB7CFF501808191819A
:1033B0000E941409AB01BC01BACF44245524320148
:1033C000F50182859385A485B5852B813C814D814E
:1033D0005E8182179307A407B50708F056C18B8159
:1033E0009C81AD81BE81F50182879387A487B587D3
:1033F0008685806486878B819C81AD81BE8191703A
:10340000A070B0700097A105B10549F1D50158969B
:103410000D911D912D913C915B97401651066206CE
:103420007306E9F01E968C911E9787FD84C052E2C8
:10343000C52ED12CCA0CDB1CE981FA818181B60131
:10344000A301920101E010E00E948A220097F9F4A2
:10345000D50158964D925D926D927C925B97C40116
:103460002A960FB6F894DEBF0FBECDBFDF91CF9185
:103470001F910F91FF90EF90DF90CF90BF90AF9092
:103480009F908F907F906F905F904F90089581E014
:10349000F501878791E0892E912CE1CF22273327F0
:1034A000A9012C193D094E095F098F819885A985CD
:1034B000BA85282339234A235B232B833C834D83FE
:1034C0005E83D50150962D933D934D935C93539716
:1034D000421A530A640A750A54964D915D916D9192
:1034E0007C91579708CFC50140E050E0BA010E9497
:1034F000F50AAB01BC014130510561057105E9F1E7
:103500004F3FBFEF5B07BFEF6B07BFEF7B0709F4D0
:10351000BECFD50116964D935D936D937C9319970D
:1035200050968D919D910D90BC91A02D8B839C8385
:10353000AD83BE83DBCEE981FA8142E2C42ED12C79
:10354000CA0CDB1C8181B601A901980101E010E0E1
:103550000E948D22009709F09ACFD5011E968C917A
:103560001E978F771E968C931E9766CF82E0F5018B
:103570008787B2E08B2E912C72CF82E0D5011F9607
:103580008C931F97F2E08F2E912C69CFD501509626
:103590008D919D910D90BC91A02D8B839C83AD83CB
:1035A000BE838B819C81AD81BE81840D951DA61D3E
:1035B000B71D8B839C83AD83BE83F501808B918B7C
:1035C000A28BB38BD301C2019170A070B070009731
:1035D000A105B10509F4F1CE09811A81AEEFCA2E19
:1035E000AFEFDA2EAFEFEA2EAFEFFA2EC40ED51EF4
:1035F000E61EF71EF80183899489A589B68902978A
:10360000A109B109C816D906EA06FB0608F0B5CF2C
:103610002185328540E050E0C701B6010E94232990
:10362000AB01BC01F80187A190A5A1A5B2A5480FE7
:10363000591F6A1F7B1F411551056105710509F46A
:103640009CCFE9E07694679457944794EA95D1F734
:10365000440E551E661E771EB3CE81E0D5011F961F
:103660008C931F9711E0812E912CF9CED5015096A5
:103670002D913D914D915C9153972B833C834D83CC
:103680005E834424552432019BCEDA01C901917036
:10369000A070B070B7CE0F931F93CF93DF9300D07D
:1036A00000D0CDB7DEB78C017C836B830097B9F077
:1036B000CE010396BE016F5F7F4F40E00E945B0426
:1036C000009781F0D80111961C921E920F900F90D6
:1036D0000F900F90DF91CF911F910F91089589E086
:1036E00090E0F4CF89819A81D8018D939C936B816E
:1036F0007C81C8010E94CA0F009749F5F80187A193
:1037000087FD2FC0848184FF29C0028CF38DE02DBA
:10371000338D20E0828D90E0822B932BAC0160E012
:1037200070E029813A81D9018C918330E9F0F80168
:103730004683578360877187D90115968D919C9137
:103740001697F80193838283C8010E94AC0E8430DF
:10375000910521F0009709F4B9CFB4CF85E090E04E
:10376000B1CF29813A81E8CFB589A0E0848990E082
:103770008A2B9B2BA0E0B0E0DC0199278827482BFF
:10378000592B6A2B7B2BD3CF0F931F93CF93DF93B0
:1037900000D0CDB7DEB78C01BE016F5F7F4F0E94B6
:1037A0009701009719F4F801118210820F900F9081
:1037B000DF91CF911F910F910895CF92DF92EF92F9
:1037C000FF920F931F93CF93DF9300D0CDB7DEB757
:1037D0008C016B01BE016F5F7F4F0E9497017C01DE
:1037E000009761F4C801C114D10479F10E946A0EF6
:1037F0008430910579F0009769F07C01C7010F9042
:103800000F90DF91CF911F910F91FF90EF90DF907C
:10381000CF900895F6011186F80186899789A08DC9
:10382000B18D0097A105B10551F4C80160E070E0C9
:103830000E94FD0B8430910509F37C01DFCFC801A4
:103840004A96B6010E94DD01F0CF0E94AC0E7C01C9
:10385000D5CFEF92FF920F931F93CF93DF93CDB706
:10386000DEB7AA970FB6F894DEBF0FBECDBF9AA7FA
:1038700089A77B01CE018996BE016F5F7F4F40E033
:103880000E945B048C01009771F0C801AA960FB6E4
:10389000F894DEBF0FBECDBFDF91CF911F910F9186
:1038A000FF90EF90089569A57AA5CE0101960E9438
:1038B000CA0F8C01009749F788A587FD13C0E11452
:1038C000F10419F3F70111868F89988DA98DBA8DAE
:1038D0000097A105B105C9F2CE014B96B7010E9430
:1038E000DD01D3CF06E010E0D0CF2F923F924F9270
:1038F0005F926F927F928F929F92AF92BF92CF9280
:10390000DF92EF92FF920F931F93CF93DF93CDB788
:10391000DEB728970FB6F894DEBF0FBECDBF9C83ED
:103920008B837E836D838A01CE010396BE016F5F18
:103930007F4F40E00E945B044C01009709F0B8C043
:10394000A980BA80D801AD92BC92F5018785908993
:10395000A189B289C388D488E588F688B701A60111
:103960004250504060407040481759076A077B0733
:1039700008F0B8C08081813009F4BBC0478D50A1E8
:1039800061A172A1E0E0F0E020E030E044245524A1
:10399000320198868F8285014A015B0145C0D801BA
:1039A0008C91823009F45CC0838190E0A0E0B0E0AB
:1039B0004427582F692F7A2F828190E0A0E0B0E051
:1039C000482B592B6A2B7B2B762F652F542F44279E
:1039D000818190E0A0E0B0E0482B592B6A2B7B2B33
:1039E000762F652F542F4427808190E0A0E0B0E02F
:1039F000482B592B6A2B7B2B7F7041155105610594
:103A0000710529F40894411C511C611C711C3496E9
:103A1000245030400894C108D108E108F108C114CD
:103A2000D104E104F10469F12115310509F0B7CFA2
:103A3000C801B501A4010E946903009709F095C06F
:103A40000894811C911CA11CB11C09811A81F801E8
:103A5000BF9620E032E0D8018C91823009F0A4CFEB
:103A600031802224808190E082299329009729F4D3
:103A70000894411C511C611C711C3296225030402C
:103A8000C9CF8F8098845801ED81FE814082518298
:103A900062827382D5011F964D925D926D927C92E7
:103AA000529714968C911497816014968C93149766
:103AB000C40128960FB6F894DEBF0FBECDBFDF91CC
:103AC000CF911F910F91FF90EF90DF90CF90BF901B
:103AD000AF909F908F907F906F905F904F903F90AE
:103AE0002F900895ED81FE8180839183A283B3831B
:103AF000DFCF22E0C22ED12CE12CF12C442455241E
:103B000032011EC081309105A105B10591F10097E8
:103B1000A105B10529F40894411C511C611C711CBC
:103B20000894C11CD11CE11CF11CE981FA81838934
:103B30009489A589B689C816D906EA06FB06F8F461
:103B4000C501B701A6010E941409DC01CB018F3F1A
:103B5000EFEF9E07EFEFAE07EFEFBE0799F6A980F4
:103B6000BA8091E0892E912C8FCFA980BA804C0128
:103B70008BCFA980BA8082E0882E912C85CF5F01FF
:103B800083CFCF92DF92EF92FF920F931F93CF9349
:103B9000DF9300D0CDB7DEB76C01BE016F5F7F4F02
:103BA0000E9497017C01009781F4D6011F96EC904A
:103BB0001F97FF24E114F10441F41E968C911E9787
:103BC00081FD0FC067E0E62EF12CC7010F900F902A
:103BD000DF91CF911F910F91FF90EF90DF90CF90E9
:103BE000089550968D919D910D90BC91A02DF60158
:103BF000428553856485758584179507A607B707A1
:103C000020F70097A105B10509F44DC0F6014489DC
:103C1000558966897789808191810E941409AB0159
:103C2000BC014F3FFFEF5F07FFEF6F07FFEF7F071D
:103C300009F472C0413051056105710509F45BC09A
:103C4000E981FA8183899489A589B689481759073A
:103C50006A077B0708F465C0F60180899189A2890B
:103C6000B38982879387A487B58786858064868792
:103C700087FFABCFE981FA81B6016E5D7F4FD60138
:103C800058962D913D914D915C915B97818101E01A
:103C900010E00E948D22009709F04FC0F601868542
:103CA0008F77868792CF4681578160857185C6015F
:103CB00000E010E098010E94CA0D9C01D601169602
:103CC0001D921D921D921C921997F601808991896F
:103CD000A289B38982879387A487B5878685806404
:103CE00086872115310521F2422F7901D6011F96D1
:103CF0004C931F976ACF42E032E0E32EF12CF6019D
:103D000080899189A289B38982879387A487B5879F
:103D1000868580648687EACF41E051E0E52EF12C6C
:103D2000EECFD60154960D911D912D913C91579750
:103D3000C6010E94CA0D9C01C8CF41E071E0E72E88
:103D4000F12CD4CFCF92DF92EF92FF920F931F937B
:103D5000CF93DF93CDB7DEB7C455D0400FB6F894FC
:103D6000DEBF0FBECDBF65969FAF8EAF6597CE010C
:103D70008D5A9F4FBE016F5F7F4F42E00E945B04F0
:103D800029813A813CA72BA7009781F0CC5ADF4FBD
:103D90000FB6F894DEBF0FBECDBFDF91CF911F915C
:103DA0000F91FF90EF90DF90CF90089565966EADE4
:103DB0007FAD6597CE018B960E94CA0F009731F7B1
:103DC00063968FAD639787FD06C04FA540FF06C081
:103DD00087E090E0DBCF86E090E0D8CF69817A8100
:103DE0002796EEADFFAD2797338D20E0828D90E0D2
:103DF000822B932B6C01EE24FF24DB018C9183300A
:103E000079F4358920E0848990E0822B932BA0E01F
:103E1000B0E0DC0199278827C82AD92AEA2AFB2A98
:103E200044FD23C00BA51CA525964CAD5DAD6EAD24
:103E30007FAD2597C8010E946903009709F0A6CFBE
:103E40002796EEADFFAD279785EE808381E0D80100
:103E500013968C931397C114D104E104F104E9F48F
:103E600089819A810E94D70291CF7C836B83C98616
:103E7000DA86EB86FC86CE0103960E94AC0E009794
:103E800009F084CFCE0103960E946A0E009709F4D0
:103E90009FCF8430910531F279CFCE018B96B70157
:103EA000A60100E010E098010E94CA0D009709F0F9
:103EB0006DCFD6CF2F923F924F925F926F927F92AB
:103EC0008F929F92AF92BF92CF92DF92EF92FF922A
:103ED0000F931F93CF93DF93CDB7DEB7E1970FB664
:103EE000F894DEBF0FBECDBF9CA78BA7CE018B96EB
:103EF000BE016F5F7F4F42E00E945B047C018981BD
:103F00009A819C838B83E114F104D1F0C701E1967F
:103F10000FB6F894DEBF0FBECDBFDF91CF911F91DA
:103F20000F91FF90EF90DF90CF90BF90AF909F9058
:103F30008F907F906F905F904F903F902F9008955B
:103F40006BA57CA5CE0103960E94CA0F7C01009749
:103F5000B9F184309105D1F6CE01039640E050E0EE
:103F6000BA010E94F50A6DA77EA78FA798ABE981D9
:103F7000FA8181859285A0E0B0E019E0880F991F51
:103F8000AA1FBB1F1A95D1F78D879E87AF87B88B65
:103F90000DA51EA52FA538A901151105210531056F
:103FA00099F497E0E92EF12CCE0103964DA55EA57C
:103FB0006FA578A900E010E098010E94CA0DA6CF75
:103FC00028E0E22EF12CA2CF0130110521053105A8
:103FD00021F482E0E82EF12CE7CF0F3F4FEF1407DA
:103FE0004FEF24074FEF340721F401E0E02EF12CCE
:103FF000DBCFCF010E946F027C010097A9F6E98018
:10400000FA808DA49EA4AFA4B8A88EEF9FEFAFEF67
:10401000BFEF880E991EAA1EBB1EF70183899489E3
:10402000A589B6890297A109B10988169906AA0639
:10403000BB0608F0E4C02185328540E050E0C501B0
:10404000B4010E9423292B013C01F70187A190A50F
:10405000A1A5B2A5480E591E6A1E7B1EAFE2CA2E4C
:10406000D12CCE0CDF1C8701015D1D4FF601119292
:10407000E017F107E1F7C6010B96F60120E2219364
:10408000E817F907E1F78EE2D7019F968C939F9787
:1040900080E1DA968C93F701EB5BFF4F1082F7011A
:1040A000EA5BFF4F1082F701E95BFF4F81E28083FB
:1040B000F701E85BFF4F88E48083A981BA812DA4D2
:1040C000F701E75BFF4F20823EA539ABF701E65BC6
:1040D000FF4F30838C91833009F4ABC0C701815B03
:1040E0009F4FB60140E250E00E94D201F701E05B31
:1040F000FF4F8EE2808349855A856B857C852981B7
:104100003A81D9018C91833009F445C0CA01F70185
:10411000E759FF4F8083F701E659FF4F9083D9019C
:104120008C91833009F479C0F901818592850097DB
:1041300009F442C001974C01AA24BB240894811CB5
:10414000911CA11CB11C840C951CA61CB71C33240B
:104150003394D9019B964D925D926D927C929E977D
:104160000894411C511C611C711C13963C92C9019E
:104170000E946F027C01009709F016CFF6011192A0
:104180000E171F07E1F7481459046A047B04A1F0D5
:1041900029813A81DECFF90183A194A1A5A1B6A11D
:1041A00084179507A607B70709F0B0CF90E080E025
:1041B00040E050E0BA01ABCFCE0103960E945B0F06
:1041C0007C01009709F0F0CEED8DFE8D168A178ADE
:1041D00081E2808F88E4818F89819A81228E09A96A
:1041E000038FDC012C91233071F020E1238721E043
:1041F000DC0113962C930E94D7027C0187CE4424C5
:10420000552432012BCF0DA51EA52FA538A9A90134
:1042100066277727448B558BE8CFAB016627772736
:10422000F701ED59FF4F4083F701EC59FF4F5083E1
:104230007BCF2DA53EA54FA558A9CA01AA27BB270C
:10424000F701ED5BFF4F8083F701EC5BFF4F90833D
:1042500045CFEF92FF920F931F93CF93DF93CDB78C
:10426000DEB7CE56D0400FB6F894DEBF0FBECDBF3E
:10427000AD969FAF8EAFAD97AF967FAF6EAFAF9756
:10428000CE0183599F4F0E946101CE0185599F4FF6
:10429000BE016F5F7F4F42E00E945B04009771F0A8
:1042A000C259DF4F0FB6F894DEBF0FBECDBFDF910E
:1042B000CF911F910F91FF90EF90089589819A817E
:1042C00025969FAF8EAF2597AD966EAD7FADAD971E
:1042D000CE018D5B9F4F0E94CA0F009709F7AB96E6
:1042E0008FADAB97807A19F086E090E0D9CF6F96CA
:1042F0006EAD7FAD6F97655F7F4FCE01039645E151
:1043000050E00E94D201CE014B96BE016D5B7F4F03
:1043100048E250E00E94D201AF966EAD7FADAF97FC
:10432000CE014B960E94CA0F009799F449A15AA159
:104330006BA17CA12D968CAD9DADAEADBFAD2D9783
:10434000481759076A077B0709F49DC088E090E089
:10435000A7CF8430910509F0A3CFCE014B960E94E0
:104360005B0F009709F09CCF0DA91EA9C8010D96FF
:10437000BE016B5F7F4F43E150E00E94D2018B8111
:104380008062F8018387E980FA8081E0F701838306
:10439000F801838584FF59C02D964CAD5DAD6EAD9F
:1043A0007FAD2D9789A19AA1ABA1BCA14817590750
:1043B0006A077B0709F449C0338D20E0828D90E0C5
:1043C000822B932BAC0160E070E0F7018081833099
:1043D00009F46DC0DB01CA010297A109B109F70117
:1043E00043895489658976894250504060407040C5
:1043F00084179507A607B70708F056C021853285B0
:1044000040E050E0BC01CD010E942329AB01BC017A
:10441000F70187A190A5A1A5B2A5480F591F6A1F52
:104420007B1F4115510561057105F1F1C7010E941E
:104430006903E981FA81009709F032CFDF01A05BBF
:10444000BF4F8C918E3209F443C025960EAD1FAD3F
:1044500025976D964CAD5DAD6EAD7FAD6D97C80186
:104460000E946903009709F01BCF6F96EEADFFAD78
:104470006F9785EE808381E0F801838389819A813B
:104480000E94D7020DCF49A55AA56BA57CA56596BC
:104490008CAD9DADAEADBFAD6597481759076A07A6
:1044A0007B0709F053CF59CF82E090E0F9CEF801B5
:1044B000358920E0848990E0822B932BA0E0B0E046
:1044C000DC0199278827482B592B6A2B7B2B82CF1D
:1044D00049A15AA16BA17CA1DF01A759BF4F4C9301
:1044E000DF01A659BF4F5C938081833019F081E0D2
:1044F0008383ABCFAB0166277727DF01AD59BF4F71
:104500004C93DF01AC59BF4F5C93F1CF81E008952C
:1045100081E0089584E090E0089584E090E00895BB
:1045200084E090E0089508958FEF8FB9779BFECFD8
:104530008FB182E3809320019FEF9FB9779BFECFDD
:104540008FB18F3F61F0809120018823B1F78FEF09
:104550008FB9779BFECF8FB180E090E0089581E026
:1045600090E00895CF92DF92EF92FF92CF93C82F01
:104570006A017B0187FD58C0CC3081F08FEF8FB985
:10458000779BFECF8FB10E949422009739F48FEF72
:10459000CF91FF90EF90DF90CF9008958C2F8064A3
:1045A0008FB9779BFECF8FB18F2D9927AA27BB2775
:1045B0008FB9779BFECF8FB1C701AA27BB278FB9D1
:1045C000779BFECF8FB177276F2D5E2D4D2D4FB985
:1045D000779BFECF8FB1CFB8779BFECF8FB1CC2327
:1045E000C9F0C830C9F487E88FB9779BFECF8FB187
:1045F000CC30A1F09AE02FEF2FB9779BFECF8FB18F
:1046000087FFC6CF9150C1F7CF91FF90EF90DF9019
:10461000CF90089585E9E8CF81E0E6CF8FEF8FB99D
:10462000779BFECF8FB1E6CF87E340E050E0BA0141
:104630000E94B222823008F0ABCFCF779DCFFC0131
:1046400084E1809321019FEF9FB9779BFECF8FB1CB
:104650008F3F39F4809121018823B1F780E090E009
:1046600008958E3FE1F48FEF8FB9779BFECF9FB116
:1046700090838FB9779BFECF9FB191833296625022
:10468000704091F78FEF8FB9779BFECF8FB18FEF8F
:104690008FB9779BFECF8FB181E090E0089580E0E5
:1046A00090E00895FC0182E3809320019FEF9FB981
:1046B000779BFECF8FB18F3F39F080912001882307
:1046C000B1F780E090E008956FB9779BFECF8FB18E
:1046D0006D3F21F1CF0180509E4F20812FB9779BF4
:1046E000FECF21812FB93296779BFECF8E179F0781
:1046F000A1F78FEF8FB9779BFECF8FB18FEF8FB977
:10470000779BFECF8FB18FEF8FB9779BFECF2FB105
:104710002F7181E090E02530A1F6089581E090E0CE
:104720000895EF92FF920F931F93CF93DF9300D0E2
:1047300000D0CDB7DEB78AE08093210180912101BE
:104740008823E1F780911B0181FD1EC08AE09FEF65
:104750009FB9779BFECF2FB18150D1F740E050E059
:10476000BA010E94B2228130E1F000E00093220100
:104770008FEF8FB9779BFECF8FB1002329F0809107
:104780001B018E7F80931B0180911B010F900F9066
:104790000F900F90DF91CF911F910F91FF90EF90AD
:1047A000089584E68093210188E04AEA51E060E0C0
:1047B00070E00E94B222813039F189EA40E050E095
:1047C000BA010E94B222823008F463C001E011E015
:1047D00080912101882341F0812F40E050E0BA010F
:1047E0000E94B2228823A1F780912101882309F435
:1047F000BCCF80E140E052E060E070E00E94B22275
:10480000882309F0B2CFB2CF8E010F5F1F4F35E082
:10481000E32EF12CEC0EFD1EF8019FEF9FB9779B64
:10482000FECF8FB18193EE15FF05C1F78B818130EB
:1048300009F09BCF8C818A3A09F097CF80912101B2
:10484000882349F089EA40E050E060E070E40E948B
:10485000B222882399F780912101882309F485CF1A
:104860008AE340E050E0BA010E94B222882309F0B6
:104870007CCF8FEF8FB9779BFECF9FB1F8019193DB
:104880008F01EE16FF06B1F7898186FF05C00CE0A7
:104890006DCF02E019EA9CCF04E068CF80911B0144
:1048A0000895FF920F931F93CF93DF93EC0189013B
:1048B0002115310549F4C4E0D0E0CE01DF91CF915C
:1048C0001F910F91FF90089580911B0180FF09C0F7
:1048D000C3E0D0E0CE01DF91CF911F910F91FF9007
:1048E00008958091220183FD07C0A9E0440F551F60
:1048F000661F771FAA95D1F70230110568F1F2E122
:10490000FF2E8F2D0E94B222882371F0C1E0D0E0EB
:104910008FEF8FB9779BFECF8FB1CE01DF91CF9113
:104920001F910F91FF900895CE0160E072E00E9408
:104930001F230097A1F0C050DE4F01501040A1F797
:10494000C0E0D0E082E1F81619F78CE040E050E0DA
:10495000BA010E94B222DCCFE1E1FE2ED2CFC1E04B
:10496000D0E00115110571F7EBCFCF92DF92EF92F6
:10497000FF920F931F93CF93DF9300D0CDB7DEB795
:104980008C016A017B012115310569F484E090E016
:104990000F900F90DF91CF911F910F91FF90EF90AB
:1049A000DF90CF90089580911B0180FF03C083E0CA
:1049B00090E0EECF80911B0182FF03C082E090E087
:1049C000E7CF8091220190E083FD07C0B9E0CC0CD5
:1049D000DD1CEE1CFF1CBA95D1F72130310509F41E
:1049E00044C0867090700097A9F589E1B701A601CF
:1049F00029833A830E94B22229813A81882341F097
:104A000081E090E02FEF2FB9779BFECF2FB1C0CF81
:104A1000C8016CEF29833A830E94522329813A818D
:104A2000009729F000501E4F2150304089F780E058
:104A300090E06DEF29833A830E94522329813A81C5
:104A40000097F1F281E090E021153105D9F680E080
:104A500090E0D8CFA90160E070E087E929833A832C
:104A60000E94B2223A812981C0CF88E1B701A60114
:104A70000E94B222882321F6C8016EEF0E945223C1
:104A8000009729F7BDCFCF92DF92EF92FF920F935D
:104A90001F93CF93DF93CDB7DEB760970FB6F8942F
:104AA000DEBF0FBECDBF6B0190911B0190FF12C006
:104AB00023E030E0C90160960FB6F894DEBF0FBE68
:104AC000CDBFDF91CF911F910F91FF90EF90DF90BD
:104AD000CF900895833309F40CC1843308F467C080
:104AE000863309F425C1873308F47CC0883309F480
:104AF00093C1883308F449C1893309F077C0DB01D9
:104B000013964D915D916D917C91169719E0440F2C
:104B1000551F661F771F1A95D1F774688C9190E026
:104B2000A0E0B0E00CE1880F991FAA1FBB1F0A95F7
:104B3000D1F7482B592B6A2B7B2BF601828190E011
:104B4000A0E0B0E0482B592B6A2B7B2B81E30E941D
:104B5000B222882321F58FEF8FB9779BFECF8FB1DB
:104B60008EEF8FB9779BFECF8FB1D60111968C91C6
:104B700011978FB9779BFECF8FB181E092E02FEF35
:104B80002FB9779BFECF3FB10197D1F78FEF8FB948
:104B9000779BFECF8FB18F71853009F49EC221E0E3
:104BA00030E08FEF8FB9779BFECF8FB183CF83300B
:104BB00009F461C08430E8F4882309F4ABC0813083
:104BC000A9F489E040E050E0BA010E94B2228823B3
:104BD00009F4CFC121E030E08FEF8FB9779BFECF92
:104BE0008FB168CF8433B1F18533B9F024E030E080
:104BF00061CF873009F4C1C0823309F4B7C0843073
:104C0000A9F70091220110E0C8018670907000970A
:104C100009F00EC221E030E04DCF8AE340E050E0E1
:104C2000BA010E94B222882309F069C1C601049624
:104C3000F6013FEF3FB9779BFECF2FB12193E817E5
:104C4000F907C1F720E030E08FEF8FB9779BFECFF7
:104C50008FB130CF8AE040E050E0BA010E94B2222A
:104C6000882309F4CFC121E030E08FEF8FB9779B23
:104C7000FECF8FB11FCF0091220102FF43C18DE80B
:104C800040E050E0BA010E94B222882309F031C10D
:104C90008FEF8FB9779BFECF8FB1CE01019660E188
:104CA00070E00E941F23009709F423C180E39FEF67
:104CB0009FB9779BFECF2FB18150D1F72B852295DD
:104CC0002F7080E190E0A0E0B0E004C0880F991F51
:104CD000AA1FBB1F2A95D2F7F60180839183A28376
:104CE000B38320E030E08FEF8FB9779BFECF8FB199
:104CF000E1CE89E040E050E0BA010E94B222882370
:104D000009F48BC121E030E08FEF8FB9779BFECFA4
:104D10008FB1D0CE0E94942221E030E0009711F0B4
:104D200020E030E08FEF8FB9779BFECF8FB1C2CEFE
:104D30008DE840E050E0BA010E94B222882309F0D9
:104D4000DBC08FEF8FB9779BFECF8FB1C60160E4D8
:104D500070E00E941F23009709F4CEC020E030E0ED
:104D60008FEF8FB9779BFECF8FB1A4CE80912201B8
:104D7000FB01808320E030E09DCE80911B018160AB
:104D800080931B0120E030E095CEDB0113964D911E
:104D90005D916D917C91169739E0440F551F661F08
:104DA000771F3A95D1F770688C9190E0A0E0B0E061
:104DB000ECE1880F991FAA1FBB1FEA95D1F7482B7A
:104DC000592B6A2B7B2BF601818192810197A0E000
:104DD000B0E09170A070B070482B592B6A2B7B2BE0
:104DE00080E30E94B222882379F484E68093210133
:104DF0009FEF9FB9779BFECF8FB18F3F09F070C1B6
:104E0000809121018823A9F721E030E08FEF8FB94D
:104E1000779BFECF8FB14ECEDB0113964D915D9106
:104E20006D917C91169789E0440F551F661F771F7F
:104E30008A95D1F770688C9190E0A0E0B0E02CE109
:104E4000880F991FAA1FBB1F2A95D1F7482B592BF2
:104E50006A2B7B2BF601818192810197A0E0B0E063
:104E60009170A070B070482B592B6A2B7B2B81E37B
:104E70000E94B2228823A9F58FEF8FB9779BFECFCE
:104E80008FB18EEF8FB9779BFECF8FB1D60117967A
:104E9000ED91FC91189711968D919C911297009726
:104EA00009F44AC121912FB9779BFECF2FB1019709
:104EB000C9F782E092E0F60121813281821B930BD7
:104EC00039F02FEF2FB9779BFECF3FB10197D1F784
:104ED0008FEF8FB9779BFECF8FB18F71853009F43B
:104EE00028C121E030E08FEF8FB9779BFECF8FB1E3
:104EF000E1CD21E030E0F7CE21E030E031CF21E01C
:104F000030E0A2CE89E040E050E0BA010E94B22237
:104F1000882379F7CE01019660E170E00E941F239B
:104F2000009739F38C8501FF0BC1881F8827881FE4
:104F300090E001962B8530E02F733070220F331FE5
:104F4000820F931F2E85229526952695237030E09B
:104F50002150304002C0880F991F2A95E2F7A0E047
:104F6000B0E0F60180839183A283B38320E030E038
:104F7000BACECE01019660E170E00E941F23009737
:104F800009F428CE89818295869586958370813033
:104F900009F402C189858295869586958370488536
:104FA00050E0440F551F440F551F480F511D4F5FD0
:104FB0005F4F8F8190E083709070982F8827990FB2
:104FC000990F480F591F60E070E08E818F709B85AC
:104FD000991F9927991F890F8E5F9A859370990F52
:104FE000890F90E0099704C0440F551F661F771F73
:104FF0008A95D2F7F601408351836283738320E060
:1050000030E0EACDC60160E170E00E941F23009706
:1050100009F429CE20E030E028CEC60160E170E03E
:105020000E941F23009709F46DCE20E030E06CCE83
:1050300083E3BE016F5F7F4F0E944325009709F015
:10504000E9CD8981829586958695837019F48B8543
:1050500086FFE0CDD6014D915D916D917C911397C6
:105060001496CD90DD90ED90FC90179703FD0EC047
:10507000F9E0440F551F661F771FFA95D1F7A9E095
:10508000CC0CDD1CEE1CFF1CAA95D1F780E20E941F
:10509000B222882309F0BECD81E2B701A6010E94A9
:1050A000B222882309F0B6CD86E240E050E0BA0192
:1050B0000E94B222882309F0ADCD88EB80932001B5
:1050C0008FEF8FB9779BFECF9FB19F3F09F492C0BE
:1050D000909120019923A9F79DCD20E030E061CD8A
:1050E0008E3F09F091CED6011796ED91FC9118975D
:1050F00011968D919C911297009709F477C03FEF1C
:105100003FB9779BFECF2FB121930197C9F782E07A
:1051100092E0F60121813281821B930B39F02FEF4F
:105120002FB9779BFECF3FB10197D1F720E030E058
:105130006DCE20E030E0D7CE82E092E02FEFC2CEFD
:10514000482F50E043705070440F551F440F551FB7
:10515000440F551F829586958770480F511D4F5FEC
:105160005F4F8B8590E08C7790709595879595959E
:1051700087950196489F9001499F300D589F300DAB
:105180001124C901A0E0B0E0F60180839183A283DD
:10519000B38320E030E0A7CD488550E060E070E0C8
:1051A0004F73507060707070BA01552744274F5F7D
:1051B0005F4F6F4F7F4F998580E02A85820F911D49
:1051C000A0E0B0E0480F591F6A1F7B1FEAE0440FC0
:1051D000551F661F771FEA95D1F7D6014D935D9352
:1051E0006D937C93139720E030E0F6CC82E092E060
:1051F0002FEF96CF20E030E05DCC80912101882315
:1052000019F081508093210180912001882319F0A9
:1052100081508093200180911B01897F80931B0125
:1052200008950E94650080E060E00E94710080E0C7
:1052300061E00E94A40080E060E476E041E650E096
:105240000E94D400F8CF629FD001739FF001829F2B
:10525000E00DF11D649FE00DF11D929FF00D839F05
:10526000F00D749FF00D659FF00D9927729FB00DA2
:10527000E11DF91F639FB00DE11DF91FBD01CF01B5
:1052800011240895A1E21A2EAA1BBB1BFD010DC01B
:10529000AA1FBB1FEE1FFF1FA217B307E407F507E6
:1052A00020F0A21BB30BE40BF50B661F771F881FC2
:1052B000991F1A9469F760957095809590959B0158
:0C52C000AC01BD01CF010895F894FFCFB0
:1052CC00020304050607000102030405222A2B2C05
:0C52DC003A3B3C3D3E3F5B5D7C7F0001A7
:00000001FF
